:100000000C941F070C9466070C9466070C94660703
:100010000C9466070C9466070C9466070C946607AC
:100020000C9466070C9466070C940B2F0C94DD2F30
:100030000C94C1260C9466070C9466070C94660712
:100040000C9466070C9466070C9466070C9466077C
:100050000C9466070C9429270C9466070C94660789
:100060000C9466070C9466070C9466070C9466075C
:100070000C9466070C9466070C9466070C9466074C
:100080000C9466070C9466070C9466070C9466073C
:100090000C9466070C9466070C9466070C9466072C
:1000A0000C9466070C9466070C946607F708F90829
:1000B000FB080609FD08FF080109030905090809ED
:1000C0000A090C0917090E09100912091409160961
:1000D00027091909381C381C6A1C6A1CA81CC81C72
:1000E000511E511E0A1D511EAB1DAB1D1D1E261E8D
:1000F000511E4A1EB81DB81DB81DB81DB81DB81D2B
:10010000B81DB81DB81DB81DB81DB81DB81DB81D47
:10011000B81DB81DC91DD71DDE1DE51DEF1DE01E54
:10012000E01EF21EF21EE91EF21EF21EF21EE01E7C
:10013000E01EEE1EF21EF21EEE1E4A3071306331DA
:1001400071306331BD30E0306331363145313500D7
:100150001E001F0020002100220023002400250093
:10016000260027002D002E002A002A002B44000024
:1001700014001A000800150017001C0018000C00DD
:10018000120013002F00300031002961000004002C
:100190001600070009000A000B000D000E000F00FA
:1001A0003300340028000000E10000001D001B00A7
:1001B0000600190005001100100036003700380055
:1001C0000000E50000122943E3000000E200000007
:1001D00000002C42000000000000E600E7000000E4
:1001E000E4004C4101000100010001000100010098
:1001F00001000100010001000100010001000100F7
:10020000010001000000C25CC35CC55CC65CC75C49
:10021000C85CC95CCA5C0100010001000100005C0F
:10022000390000000100010001000100010001008F
:1002300001000100010001000100010000000100B7
:10024000010001000100BD5CBF5CBE5CC05C010040
:100250000100010052000000010001000100010046
:10026000000001000000000001000000000000008C
:100270005000510000004F00010029003A003B00EF
:100280003C003D003E003F00400041004200430072
:100290004400450001000100010000002900490060
:1002A00046004700480001004D004A0001000100DF
:1002B0000100010001000100000001000100010037
:1002C000010001005000510052004F002A004C0074
:1002D0000100000001000100010001000100010017
:1002E000010001004E004B00010001000000010070
:1002F00001000100010000000100000000000100F9
:1003000000000000000001000100000001000100E9
:1003100001000100010001000100010001000100D5
:1003200001000100010001000100010001000100C5
:100330000000010001000100010001000100240093
:10034000250026000100010001000100010000005D
:100350000100010001000100010001002100220054
:100360002300010001000100000001000100010064
:10037000010001000100010001001E001F0020001B
:100380000100000001000100010001000000010067
:10039000000000000100000000000000010001005A
:1003A0000000010001000100010001000100010046
:1003B0000100010001000100010001000100010035
:1003C0000100010001000000010001000100010026
:1003D0000100010001000100010001000100010015
:1003E0000100010000000100010001000100010006
:1003F00001000100010001000100010001000000F6
:1004000001000100010001000100010001000100E4
:1004100001000100010001000000010001000100D5
:1004200001000000010000000000010000000000C9
:1004300000000100010000000100010001000100B6
:1004400001000100010001000100010001000100A4
:100450000100010001000100010001000000010095
:100460000100010001000100010001000100010084
:100470000100010001000100010000000100010075
:100480000100010001000100010001000100010064
:100490000100010000000100010001000100010055
:1004A0000100010001000100010001000100000045
:1004B0000100010001000100000001000000000037
:1004C0000100000000000000010001000000010028
:1004D0000100010001000100010001000100010014
:1004E0000100010001000100010001000100010004
:1004F00001000000010001000100010001000100F5
:1005000001000100010001000100010001000100E3
:1005100000000100010001000100010001000100D4
:1005200001000100010001000100000001000100C4
:1005300001000100010001000100010001000100B3
:1005400001000100000001000100010001000000A5
:100550000100000000000100000000000000010098
:100560000100000001000100010001000100010084
:100570000100010001000100010001000100010073
:100580000100010001000100000001000100010064
:100590000100010001000100010001000100010053
:1005A0000100010001000000010001000100010044
:1005B0000100010001000100010001000100010033
:1005C0000000010001000100010001000100010024
:1005D0000100010001000100010000000100010014
:1005E0000100010000000100000000000100000007
:1005F00000000000010001000000010001000100F6
:1006000001000100010001000100010001000100E2
:1006100001000100010001000100010001000000D3
:1006200001000100010001000100010001000100C2
:1006300001000100010001000100010000000100B3
:1006400001000100010001000100010001000100A2
:100650000100010001000000010001000100010093
:100660000100010001000100010001000100010082
:100670000000010001000100010000000100000075
:100680000000010000000000000001000100000067
:100690000100010001000100010001000100010052
:1006A0000100010001000100010001000100010042
:1006B0000100010000000100010001000100010033
:1006C0000100010001000100010001000100010022
:1006D0000100000001000100010001000100010013
:1006E0000100010001000100010001000000010003
:1006F00001000100010001000100010001000100F2
:1007000001000100010000000100010001000100E2
:1007100000000100000000000100000000000000D7
:1007200001000100000001000100010001000100C2
:1007300001000100010001000100010001000100B1
:1007400001000100010001000100000001000100A2
:100750000100010001000100010001000100010091
:100760000100010001000100000001000100010082
:100770000100010001000100010001000100010071
:100780000100000001000100010001000100010062
:100790000100010001000100010001000000010052
:1007A0000100010001000000010000000000010044
:1007B0000000000000000100010000000100010035
:1007C0000100010001000100010001000100010021
:1007D0000100010001000100010001000100010011
:1007E0000000010001000100010001000100010002
:1007F00001000100010001000100010001000000F2
:1008000001000100010001000100010001000100E0
:1008100001000100010001000000010001000100D1
:1008200001000100010001000100010001000100C0
:1008300001000000010001000100010000000100B2
:1008400000000000010000000000000001000100A5
:100850000000010001000100010001000100010091
:100860000100010001000100010001000100010080
:100870000100010001000000010001000100010071
:100880000100010001000100010001000100010060
:100890000100010000000100010001000100010051
:1008A0000100010001000100010001000100000041
:1008B0000100010001000100010001000100010030
:1008C0000100010001000100000001000100010021
:1008D0000100000001000000000001000000000015
:1008E0000000010001000000010001000100010002
:1008F00001000100010001000100010001000100F0
:1009000001000100010001000100010000000100E0
:1009100001000100010001000100010001000100CF
:1009200001000100010001000100000001000100C0
:1009300001000100010001000100010001000100AF
:1009400001000100000001000100010001000100A0
:100950000100010001000100010001000100000090
:100960000100010001000100000001000000000082
:100970000100000000000000010001000000010073
:10098000010001000100010001000100010001005F
:10099000010001000100010001000100010001004F
:1009A0000100000001000100010001000100010040
:1009B000010001000100010001000100010001002F
:1009C0000000010001000100010001000100010020
:1009D0000100010001000100010000000100010010
:1009E00001000100010001000100010001000100FF
:1009F00001000100000001000100010001000000F1
:100A000001000000000001000000000000000100E3
:100A100001000000010001000100010001000100CF
:100A200001000100010001000100010001000100BE
:100A300001000100010001000000010001000100AF
:100A4000010001000100010001000100010001009E
:100A5000010001000100000001000100010001008F
:100A6000010001000100010001000100010001007E
:100A7000000001000100010001000100010001006F
:100A8000010001000100010001000000010001005F
:100A90000100010000000100000000000100000052
:100AA000000000000100010000000100010000043E
:100AB0007F3F1F643214643214783C1E1E140A05F2
:100AC0002223252628292A2C2D2F3032333536385B
:100AD0003A3B3D3E4042434547494A4C4E505153B4
:100AE0005557595A5C5E6062646668696B6D6F71D8
:100AF000737577797B7D7F81838587898A8C8E90DA
:100B0000929496989A9C9E9FA1A3A5A7A8AAACAEE2
:100B1000AFB1B3B4B6B8B9BBBCBEBFC1C2C3C5C622
:100B2000C7C9CACBCCCDCED0D1D2D2D3D4D5D6D7CB
:100B3000D7D8D9D9DADADBDBDBDCDCDCDCDCDDDD09
:100B4000DDDDDCDCDCDCDCDBDBDBDADAD9D9D8D7F9
:100B5000D7D6D5D4D3D2D2D1D0CECDCCCBCAC9C79B
:100B6000C6C5C3C2C1BFBEBCBBB9B8B6B4B3B1AFD2
:100B7000AEACAAA8A7A5A3A19F9E9C9A9896949272
:100B8000908E8C8A89878583817F7D7B7977757349
:100B9000716F6D6B6968666462605E5C5A59575527
:100BA0005351504E4C4A4947454342403E3D3B3AE3
:100BB0003836353332302F2D2C2A2928262523226A
:100BC000FFAA7F5540000000000000000000000167
:100BD00001010101010101010202020202020202FD
:100BE00003030303030303040404040405050505C8
:100BF0000506060606060707070708080808090984
:100C0000090A0A0A0B0B0B0C0C0C0D0D0D0E0E0E27
:100C10000F0F1010101111121213131414151516B2
:100C2000161717181819191A1A1B1C1C1D1D1E1F20
:100C30001F20212122232324252526272828292A6D
:100C40002B2C2C2D2E2F3031313233343536373892
:100C5000393A3B3C3D3E3F4041424344454647488C
:100C6000494B4C4D4E4F50525354555758595A5C5E
:100C70005D5E606163646567686A6B6C6E6F7172FC
:100C8000747677797A7C7D7F8182848687898B8D63
:100C90008E9092949597999B9D9FA1A2A4A6A8AA95
:100CA000ACAEB0B2B4B6B9BBBDBFC1C3C5C8CACC87
:100CB000CED0D3D5D7DADCDEE1E3E6E8EAEDEFF239
:100CC000F4F7F9FCFF04033000000010036B00622E
:100CD000006400660061006E00730000000E036493
:100CE000007A0074006500630068000000040309D6
:100CF0000409023B00020100A0FA090400000103FC
:100D000001010009211101000122400007058103B2
:100D100008000A0904010001030000000921110173
:100D2000000122C0000705820320000A1201100101
:100D300000000008EDFE60600100010203010501F2
:100D40000902A10185020901A1000509190129056E
:100D50001500250195057501810295017503810135
:100D60000501093009311581257F95027508810635
:100D700009381581257F950175088106050C0A380B
:100D8000021581257F950175088106C0C0050109FE
:100D900080A10185031601002603001A81002A8321
:100DA00000751095018100C0050C0901A1018504A1
:100DB000160100269C021A01002A9C02751095015A
:100DC0008100C005010906A1018505050719E02973
:100DD000E71500250195087501810205081901290B
:100DE0000595057501910295017503910105071996
:100DF0000029EF1500250195F075018102C005015C
:100E00000906A101050719E029E715002501950844
:100E100075018102950175088101050819012905EF
:100E2000950575019102950175039101050719005A
:100E300029FF150026FF00950675088100C01124C2
:100E40001FBECFEFDAE0DEBFCDBF04B603FE27C082
:100E50008091CB029091CC02A091CD02B091CE02B4
:100E60008730904BA740B04BD1F41092CB02109238
:100E7000CC021092CD021092CE0214BE84B7877FAE
:100E800084BF0FB6F894A895809160008861809324
:100E90006000109260000FBEE0E0F8E3099511E0F9
:100EA000A0E0B1E0E4E1F5E602C005900D92AC35BA
:100EB000B107D9F722E0ACE5B1E001C01D92AB3C2F
:100EC000B207E1F70E942D2C0C9488320C9400009C
:100ED0000C94410D0C946F0780E090E00895089504
:100EE00081E0089581FF02C0229A01C022982A98C9
:100EF000089581E008950C9470071F93CF93DF93BA
:100F000000D000D01F92CDB7DEB749835A8320911D
:100F1000B70189819A81211112C0662349F00E948C
:100F20000524182F682F89819A810E94AA2303C063
:100F30000E94D923182F69817A81812F04C00E94D1
:100F4000052469817A810F900F900F900F900F9078
:100F5000DF91CF911F910C94940AFC014081518143
:100F60006281738184810C947D070E94970D8FE3C9
:100F70009CE90197F1F700C000000E94970D80E006
:100F80000E94420D80FF04C00E9435250C944F271B
:100F900008950C946A07E82FE295EF70F0E032A113
:100FA000282F2F7081E090E001C0880F2A95EAF782
:100FB0008095832382A30895CF92DF92EF92FF92D0
:100FC000863030F4811105C0909180009F7D04C06F
:100FD00085E090918000906290938000282F30E00F
:100FE000AFEFBFEF0E94F73125E030E040E050E086
:100FF0000E94CF312C3784E138074105510530F488
:10100000C90169E070E00E94A73129C0DA01C90175
:101010008A50974DAF4FBF4F6627782F892F9A2F51
:1010200025EF38E241E050E00E94CF3169017A01BA
:10103000CA01B9010E9497319B01AC01C701B601F9
:101040000E949731BB27A92F982F872F009721E067
:10105000A207B10511F0BC0102C06FEF7FEF7093E2
:101060008B0060938A00FF90EF90DF90CF900895FF
:10107000269A86E30E94CB0782E28093800089E172
:10108000809381008FEF9FEF90938700809386007D
:101090000C94AD290E94B5070E943B25811102C026
:1010A0000E94BE250E9438080C9468070C947207B1
:1010B0000C94560808950E94D01E0E945A082FEFE3
:1010C00084E39CE0215080409040E1F700C00000A4
:1010D0000C944F270F931F93CF93DF9300D0CDB77E
:1010E000DEB78C010E94AD079A838983B801CE01D7
:1010F00001960E948314882309F40DC2B8018981E6
:101100009A810E947B07882309F405C2B80189816E
:101110009A810E94A118882309F4FDC129813A818E
:101120002A3CFCE53F0741F4F8018281882309F459
:10113000F3C10E942E11EFC12B3C8CE5380708F05B
:101140001DC1233C9CE5390761F4F80182818823A5
:1011500009F4E2C10E9485248272E1F00E945913D1
:10116000DAC1243CECE53E07C0F0263C9CE539079B
:1011700009F4D5C008F0E7C0243CFCE53F0709F0BE
:10118000D6C0F8018281882309F4C6C10E94852453
:10119000827221F30E944C13BEC12531FCE53F074A
:1011A00008F086C022308CE5380708F460C0F801EA
:1011B0008281882309F462C00E943B25811102C00C
:1011C0000E94BE250E944E2590E09093BC02809321
:1011D000BB02E981FA81E250FC45E431F10508F0F7
:1011E0003FC0EA5AFF4F8091BB020C94F1318160FD
:1011F00035C0826033C0846031C080612FC080629E
:101200002DC080642BC0806829C08460886026C09F
:101210008E7F24C08D7F22C08B7F20C08F7E1EC01A
:101220008F7D1CC08F7B1AC08F7718C08B7F877F04
:1012300015C082FB222720F991E0292720FB82F9A3
:1012400083FB222720F9922790FB83F907C087FBB5
:10125000222720F991E0922790FB87F98093BB0227
:101260008091BB020E9452250E94D01E54C12115BC
:101270009CE5390739F021303C4561F0C8010E94F6
:1012800079074AC1F8018281882309F445C10E9487
:101290005B0841C1F8018281882309F43DC1809136
:1012A0004F02982F909590FB80F980934F0233C1A5
:1012B0002631FCE53F0739F50E948524282FF801E7
:1012C00082814091100150911101882379F02A7A8E
:1012D00091E009F490E090935C01911102C069E201
:1012E00001C065E3CA010E9425260AC080915C0105
:1012F000811102C069E201C065E3CA010E94302683
:101300000E94D12408C1223C3C4509F0B7CFF80126
:101310008281882309F400C10E946713FCC0F80190
:101320008281882309F4F8C00E94F210F4C0253CA1
:101330003C4509F0A3CFF8018281882309F4ECC071
:101340000E94E510E8C0F8018281283CFCE53F07D7
:1013500031F4882309F4E0C00E941011DCC0293C5C
:101360003C4530F4882309F4D7C00E940111D3C052
:10137000882309F4D1C00E941F11CDC0213DECE5A6
:101380003E0781F4F8018281882309F4C5C00E94D8
:10139000600F8F3028F00E94600F843108F4FACE7D
:1013A0008FE00FC0223DFCE53F0708F05CC02D3CFC
:1013B0008CE5380749F4F8018281882309F4ACC030
:1013C00081E00E945C13A7C02E3C9CE53907C0F465
:1013D0002B3CECE53E0741F4F8018281882309F4B7
:1013E0009BC00E94680F97C02C3C3C4509F046CF3B
:1013F000F8018281882309F48FC00E94790F8BC085
:10140000F80182812F3CFCE53F0771F4882309F441
:1014100083C00E94600F863028F00E94600F8830E1
:1014200008F4B8CE86E0CDCF203D3C4570F488234B
:1014300009F472C00E94600F823028F00E94600F91
:10144000853008F4A7CE82E0BCCF882309F464C0BD
:101450000E94600F893028F00E94600F8E3008F4DF
:1014600099CE89E0AECF253DECE53E0739F4F80191
:101470008281882309F450C083E2A3CF263DFCE596
:101480003F0740F5F8018281233DFCE53F0729F441
:10149000882309F441C088E194CF243D3C4568F499
:1014A0008823D1F10E94600F853128F00E94600FDF
:1014B000873108F46FCE85E184CF882369F10E94DB
:1014C000600F893128F00E94600F823208F462CEEA
:1014D00089E177CF2D3DECE53E0741F4F8018281AB
:1014E0008823D1F082E00E94CE2C15C02F3DFCE570
:1014F0003F0739F4F8018281882371F00E94BE25EC
:101500000AC02C3D3C4509F0B9CEF8018281882300
:1015100019F080E0E8CF80E00F900F90DF91CF913D
:101520001F910F91089508959FE0799FF001112474
:101530009BE4899FE00DF11D1124E60FF11DEE0FD4
:10154000FF1FE25BFE4F859194910895880F991FCC
:10155000FC01E255F54F859194910895CF93DF9367
:101560000E94940A0E94A10CEC01811521E59207CA
:1015700008F042C0811560E5960708F031C1883E49
:10158000910500F5803E910508F0D7C1883A910594
:1015900070F4853A910508F0A6C08130910509F4F0
:1015A000CCC108F47DC1049708F0C7C179C18F3B55
:1015B000910508F4A3C0803C910508F471C1805CDA
:1015C0009109FDC0C11580E3D80780F4C11590E2F0
:1015D000D90708F0F2C0C03FD10508F461C1CF3F80
:1015E000D10511F008F0A9C1D065A7C1C11520E44B
:1015F000D20708F0F2C0E7C0811569E5960760F5EB
:10160000C11588E5D80708F037C1C11594E5D90799
:1016100078F4C11523E5D20708F013C1C11562E5BE
:10162000D60708F0F8C0DC2FCC27C16FD06A85C17F
:10163000C11585E5D80708F41AC1C11596E5D90783
:1016400008F02EC18C2F0E941E0D8F71C82FD0E084
:10165000DC2FCC27D06271C18D3B2CE5920709F4B9
:1016600016C1F0F4CB3B8CE5D80709F40AC108F0A9
:101670000BC1C1152AE5D20708F012C18C2F8F705B
:101680000E941E0D94E0D695C7959A95E1F7CF700C
:10169000D0E0DC2FCC27D06A8F70806EC82B4DC174
:1016A000803C9C4509F4F9C0C13C8CE5D80760F446
:1016B000CE3B9CE5D90709F4EDC0CF3BDC4509F0F2
:1016C000EFC0C0E0D2ED39C1CE01905681159042F5
:1016D00008F0E6C08D2F8F710E941E0DDD27D062AD
:1016E0008F71D82B2AC1853A910509F4DCC0863A5E
:1016F000910509F0DBC0C2E8D0E41FC1883A91052A
:1017000009F4D7C0893A910509F4D6C08A3A9105FF
:1017100009F4D5C08B3A910509F4D4C08C3A9105EF
:1017200009F4D3C08B3B910509F4D2C08C3B9105E1
:1017300009F4D1C08D3A910509F4D0C0803B9105E0
:1017400009F4CFC08E3A910509F4CEC08F3A9105C5
:1017500009F4CDC0813B910509F4CCC0823B9105D1
:1017600009F4CBC0833B910509F4CAC0843B9105C1
:1017700009F4C9C0853B910509F4C8C0863B9105B1
:1017800009F4C7C0873B910509F4C6C0883B9105A1
:1017900009F4C5C0893B910509F4C4C08D3B91058E
:1017A00009F4C3C08E3B910509F4C2C08A3B910580
:1017B00009F4C1C0C0E0D4E4C0C0CE019F700E9453
:1017C000A60AEC01BAC0CE019927D3FF03C0EC01F1
:1017D000D86CB3C0EC01D06CB0C0DF70D06AADC0C3
:1017E000837021E030E002C0220F331F8A95E2F7B8
:1017F0003C68CE0174E0969587957A95E1F7837001
:10180000382BCF70C695C69580E2C89FE0011124A1
:10181000C22BD32B92C04C2F4695469590E2499F00
:10182000A0011124C370DD2721E030E0C90102C00E
:10183000880F991FCA95E2F7EC01C42BD52BDC6801
:101840007CC04C2F4695469580E2489FA00111240C
:10185000C370DD2721E030E0C90102C0880F991F65
:10186000CA95E2F7EC01C42BD52BDA6866C0DC2FF1
:10187000CC27C46FD06A61C0DC2FCC27C06FD06A80
:101880005CC0C0E0D4ED59C0C0E0D5ED56C0C0E0AA
:10189000D1ED53C0C0E0D0ED50C0C0E0D3ED4DC09D
:1018A000C0E0D0E04AC0C1E8D0E447C0C3E8D0E41B
:1018B00044C0C2EED4E441C0C9EED4E43EC0CAEE96
:1018C000D4E43BC0C5EBD4E438C0C6EBD4E435C0A7
:1018D000C3EBD4E432C0C4EBD4E42FC0C7EBD4E4F0
:1018E0002CC0CCECD4E429C0CDECD4E426C0C3E8B1
:1018F000D5E423C0CAE8D5E420C0C2E9D5E41DC0C0
:10190000C4E9D5E41AC0C1E2D6E417C0C3E2D6E404
:1019100014C0C4E2D6E411C0C5E2D6E40EC0C6E2EB
:10192000D6E40BC0C7E2D6E408C0CFE6D4E405C0D5
:10193000C0E7D4E402C0CAE2D6E4CE01DF91CF9181
:1019400008958238910549F1B0F48133910509F485
:1019500058C048F48932910509F44EC08A32910585
:1019600009F454C008958533910509F440C08933C2
:10197000910599F00895833E910529F138F4803E50
:10198000910591F0823E9105A1F00895863E910562
:10199000F9F0873E910531F108952091BB0220FDB9
:1019A0003AC021FD38C008958091BB0280FD35C04A
:1019B00032C08091BB0282FF32C08091BB0284FDA5
:1019C00030C083EE39C08091BB0282FD28C0F5CFC4
:1019D0008091BB0283FF27C08091BB0284FD21C0A0
:1019E00087EE2AC08091BB0283FD1DC0F5CF809198
:1019F000BB0285FD1AC01BC08091BB0285FD17C0CC
:101A000014C08091BB0286FD14C015C08091BB023A
:101A100086FD11C00EC080EE0FC089E30DC082EEBE
:101A20000BC080E009C086EE07C089E205C085E3EF
:101A300003C08AE201C081E390E008959091BB0267
:101A400092FF0DC0282F2871283019F4877F8460F9
:101A500006C0282F2471243011F48B7F886093FFF7
:101A60000DC0282F2871283119F4877E846106C0A3
:101A7000282F2471243111F48B7E886194FD877E98
:101A800008950895E82FF0E0EE0FFF1FE35AFE4F90
:101A90008081918108950895A2E3B1E041E050E092
:101AA00025E02A0F8D91E82FE295EF70F0E031A14B
:101AB0008F70BA0102C0660F771F8A95E2F7CB01DB
:101AC000962F9095932391A392A1892B82A32A13F9
:101AD000E9CFA3E2B1E041E050E02FE02A0F8D9181
:101AE000E82FE295EF70F0E031A18F70BA0102C0EB
:101AF000660F771F8A95E2F7CB01962F9095932377
:101B000091A392A1892B82A32A13E9CFE7E6F1E002
:101B1000ADE5B1E0119211921D921D9271E0E13795
:101B2000F707C1F785E00E942E0E0C944A085F92D9
:101B30006F927F928F929F92AF92BF92CF92DF92DD
:101B4000EF92FF920F931F93CF93DF9302E311E085
:101B5000A7E6B1E0612CEE24E394F12C5D018D90B9
:101B60009C90119711961C921E92E80189918E010A
:101B7000E82FE295EF70F0E091A18F70A70101C00E
:101B8000440F8A95EAF7892F842B81A382A1542ED2
:101B90005094852182A3D0EADA95F1F783E2C82E2A
:101BA00081E0D82E80E090E0E60179906E01272D4B
:101BB00022952F7030E0E90168A12D913C91119799
:101BC00070E0D72DDF7002C075956795DA95E2F762
:101BD00060FD08C0B701082E02C0660F771F0A9487
:101BE000E2F702C060E070E0262B372B11963C93A1
:101BF0002E9301968F309105B9F681A1D52DD8236A
:101C0000D1A382A1482B42A3129681E0F501208145
:101C100031818216930609F480E0682AF1E0A13749
:101C2000BF0709F09BCF262D45E06DE571E087E603
:101C300091E00E942F0E0E94C907862DDF91CF915F
:101C40001F910F91FF90EF90DF90CF90BF90AF90DA
:101C50009F908F907F906F905F9008950895FF926E
:101C60000F931F93CF93DF93F82E092F162FD72FA3
:101C7000C42F222349F081E0809373010E94F32650
:101C80009093720180937101809173018823D9F040
:101C900080917101909172010E94FF26069798F041
:101CA000EF2DF02FA12FBD2F80E090E04C2F50E0C2
:101CB0008417950734F4219131912D933D9301962A
:101CC000F7CF10927301DF91CF911F910F91FF9089
:101CD0000895CF92DF92EF92FF920F931F93CF93CD
:101CE000DF937B01282F382FE82FF0E0F11006C09A
:101CF000EB53F44F6491762F862F7BC00F2D10E0AD
:101D000046E0649FC0011124CFEFD0E0BE010E94E5
:101D1000A731AB016BEA6403C001659F900D1124EC
:101D20008E0D911D8E0D911D982F990F890FBE015B
:101D3000601B710B6E9FD0016F9FB00D7E9FB00D29
:101D400011249B2F8F9DB0011124672F77277E01CF
:101D5000E61AF70AEE9EB001EF9E700DFE9E700D22
:101D600011246E01C81AD108C09E7001C19EF00CEA
:101D7000D09EF00C11240F2D1127C01BD10BCE9F2C
:101D80008001CF9F100DDE9F100D1124812F423056
:101D9000510591F04CF441155105E1F041305105E8
:101DA000B9F4822F272F16C04430510569F044F052
:101DB0004630510579F00CC0822F2B2F912F0AC08D
:101DC0002B2F932F872F06C08B2F922F212F02C0EE
:101DD0008B2F972FE22FF0E0EB53F44F7491E82F05
:101DE000F0E0EB53F44F6491E92FF0E0EB53F44F44
:101DF0008491DF91CF911F910F91FF90EF90DF9031
:101E0000CF9008950895CF93DF93762FE901682F3F
:101E1000842F0E94690E798368838A83DF91CF9132
:101E20000895493C08F048EC0C94030F809180021F
:101E3000282F269530E02115310519F48170826034
:101E400005C02532310524F08170886480938002BA
:101E500080918302893C18F088EC80938302089576
:101E600088E090E00C944832CF93DF9300D000D00C
:101E7000CDB7DEB7AB01BC0149835A836B837C834A
:101E80000E94160F49815A816B817C8188E090E025
:101E90000F900F900F900F90DF91CF910C946632BE
:101EA000E0E8F2E083E0808311828FEF828388ECA8
:101EB0008383148260817181828193810C94340FB9
:101EC0008091800280FF02C08695089580E0089589
:101ED00080918402833018F48F5F80938402609134
:101EE00080027091810280918202909183020C9411
:101EF000340F80918402882319F0815080938402EA
:101F0000609180027091810280918202909183029F
:101F10000C94340F6091040170E08091800280FF86
:101F20000AC08091780123E0829FC00111248B5761
:101F30009D4F0C9480148091770190910301891733
:101F400080F7E82FF0E09F01220F331FE20FF31F0D
:101F5000EB57FD4F1182108212828F5FF0CF90916C
:101F6000800290FF16C09091770120910301921793
:101F700070F4E92FF0E0DF01AA0FBB1FEA0FFB1F8F
:101F8000EB57FD4F8183608342839F5FF0CF0C94BA
:101F90008A0F0895CF93DF9300D01F92CDB7DEB79D
:101FA0009091800290FF0AC09E012F5F3F4F0E94D8
:101FB000110F4B8169818A810E94AF0F0F900F90A2
:101FC0000F90DF91CF910895CF93DF93EC01EC81D7
:101FD000F0E0E054F54F4491E0E8F2E06281818165
:101FE0000E94CA0F8C818F5F8C83DF91CF910895FF
:101FF000CF93DF93EC01E0E8F2E0438162818C81D2
:102000000E94CA0F8C818F5F8C83DF91CF910895DE
:102010000F931F93CF93DF9300D01F92CDB7DEB7FE
:102020008C018091740181110AC09E012F5F3F4F86
:1020300048EC6FEF0E94110F8A8180937401F801C0
:102040008481813051F028F0823061F44091740134
:102050000AC08091740140E007C06091740140E0C3
:1020600080E003C040E080E060E00E94AF0FF80134
:10207000248130E0C901019663E070E00E94BB3129
:1020800084830F900F900F90DF91CF911F910F914C
:102090000895AF92BF92CF92DF92EF92FF920F938B
:1020A0001F93CF93DF9300D01F92CDB7DEB7182FC9
:1020B000F62E042FE22E9091800290FF6EC0E92F41
:1020C000E695AE2FB0E0A95CBE4F8C918093800165
:1020D0009E7F923061F49E012F5F3F4F812F0E94BF
:1020E000110F4B8169818A810E94AF0F44C08230F9
:1020F00019F4009183023FC0863019F410918102D7
:102100003AC08930D9F38931B1F5E9518E2F817008
:10211000D82EE695F0E0E054F44FA590B490C12C91
:10212000BB2460910201C61620F5EC2DF0E0EA9D7B
:10213000C001EB9D900DFA9D900D112470E00E945E
:10214000A731812FD11002C0860F01C0861B90914C
:102150007701E90FF11D9F01220F331FE20FF31FDB
:102160009F012B573D4F402F6F2D0E94110FC3949D
:10217000D8CF0E948A0F10938102F09282020093BE
:102180008302EE2051F06091800270918102809173
:102190008202909183020E94340F0F900F900F9053
:1021A000DF91CF911F910F91FF90EF90DF90CF9033
:1021B000BF90AF900895E0E8F2E09181282F43812D
:1021C000628188E0890F0C94491081E00C94DB1047
:1021D000E0E8F2E09181282F4381628188EF890F46
:1021E0000C94491081E00C94E810E0E8F2E0628180
:1021F00028E0620F08F46FEF282F438181810C944F
:10220000491081E00C94F510E0E8F2E0628128E0EA
:10221000621B08F460E0282F438181810C944910EF
:1022200081E00C940411E0E8F2E0438128E0420FE1
:1022300008F44FEF282F628181810C94491081E0CE
:102240000C941311E0E8F2E0438128E0421B08F40B
:1022500040E0282F628181810C94491081E00C9428
:10226000221120E00C944910FF920F931F93CF93FB
:10227000DF93EC01F12C0FEF10E060910201F616F4
:10228000E8F42091770130E02F0D311DC901880F4E
:10229000991F280F391F2B573D4F70E0C8010E942E
:1022A000BB31962F8C814091830260918202F99E0E
:1022B000800D11240E94110FF394DFCF0E948A0F2A
:1022C0009A818C8190FF02C08F5F01C081508C8306
:1022D000DF91CF911F910F91FF900895BF92CF9200
:1022E000DF92EF92FF920F931F93CF93DF93FC0146
:1022F000828180FF02C00FEF01C001E010E08091F9
:1023000002011817E0F5C12ED12C80917701E6016A
:10231000C80FD11DCE01880F991FC80FD91FCB57E9
:10232000DD4F198218821A8234E0E32EF12CB12C91
:10233000809176018B0D87FF03C090910201890F78
:10234000082E000C990BC816D90691F480918302CF
:102350008E9DA0018F9D500D112455954795559543
:1023600047959E0160918202809181020E94110F27
:10237000B00EF1E0EF1AF108D9F61F5FC0CF0E944E
:102380008A0F80917601013031F4811102C0809171
:102390000201815007C090E001966091020170E057
:1023A0000E94BB3180937601DF91CF911F910F91F5
:1023B000FF90EF90DF90CF90BF900895CF938091E2
:1023C000770190910301891770F4E82FF0E09F01E5
:1023D000220F331FE20FF31FEB57FD4F11821082C4
:1023E00012828F5FF0CFC0E060910201C617B8F58E
:1023F000EC2FF0E070E0CF010E94BB3140917701FB
:10240000480F80917501082E000C990B50E0E817D9
:10241000F907C4F020910101022E000C330B2E1796
:102420003F0784F09A01220F331F240F351F2B57CB
:102430003D4F4091830260918202809181020E940F
:10244000110F0BC0FA01EE0FFF1F4E0F5F1FFA01B5
:10245000EB57FD4F118210821282CF5FC5CF0E94D1
:102460008A0F2091000180917501820F8093750180
:1024700090910101920F9093010119165CF4082EBE
:10248000000C990B4091020150E041505109841712
:1024900095071CF0219520930001CF9108950F938B
:1024A0001F93CF93DF938C01FC018481958101966A
:1024B0008170992795838483C0E0D5E580910201DE
:1024C000C817F8F42091770130E02C0F311DC901B5
:1024D000880F991F280F391F2B573D4F4C2F4695BA
:1024E000F80184819581840F911D81704091830250
:1024F000609182028D9F802D11240E94110FCF5F69
:10250000DDCFDF91CF911F910F910C948A0F0F9324
:102510001F93CF93DF93EC0100E010E08091020164
:10252000282F30E00217130724F5909177019801C6
:10253000290F311DA901440F551F240F351F2B579B
:102540003D4F869590E04C81081719071CF44423F1
:1025500031F002C0411103C04091830201C040E04C
:1025600060918202809181020E94110F0F5F1F4FC4
:10257000D5CF0E948A0F2C8130E02F5F3F4F217012
:1025800033272C83DF91CF911F910F910895E0E8BD
:10259000F2E080818E7F808360817181828193816E
:1025A0000E94340F109281012FEF80E792E02150BA
:1025B00080409040E1F700C000000C948A0FE0E8F2
:1025C000F2E080818E7F8083109281012FEF80E77F
:1025D00092E0215080409040E1F700C000000C9450
:1025E0008A0F60918002669570E04BE050E085E0D4
:1025F00091E00E943332892B19F481E080938101AC
:102600000E94F32690937A01809379010895909126
:10261000800290FF35C09170811102C0926006C0A7
:10262000853210F0986402C0880F982B9093800236
:10263000662351F060918002709181028091820244
:10264000909183020E94340F60918002669570E041
:102650004BE050E085E091E00E943332892B19F085
:102660001092810102C00E94F11281E080937C01EE
:102670004091830260918202809181020C94311119
:102680000895682F90918002969581E0890F853298
:1026900008F081E00C94071381E00C944113682F3B
:1026A0009091800296958FEF890F09F484E20C9443
:1026B000071381E00C944F1361E00C940713E0E8DA
:1026C000F2E080818160808386950C945C13809118
:1026D000800280FD0C94C7120C945F1360E00C9490
:1026E000071380917F01811133C080914F02816077
:1026F00080934F020E943B25811104C00E94BE2599
:102700000E94500F0E94300F6093800270938102EC
:1027100080938202909383026E7F61F40E94500F37
:102720000E94300F60938002709381028093820236
:10273000909383020E94160F109281018091800273
:1027400080FF03C086950E946E1381E080937F0115
:102750000895E0E8F2E080818160808386950C94A2
:102760006E131092810108950F931F93CF93DF93FF
:1027700080918101882309F48CC080918001E091CF
:102780008002E695E81BE0937B01823049F4F0E09B
:10279000E454F54FE491CE2FD0E004EE1FE049C0A1
:1027A000863049F4F0E0E754F54FE491CE2FD0E0C5
:1027B00008EF1FE03EC0893051F4E695F0E0EA549E
:1027C000F54FE491CE2FD0E004E311E132C08F3019
:1027D00051F4E695F0E0ED54F54FE491CE2FD0E0C2
:1027E0000EE611E126C0853149F4F0E0E055F54FE1
:1027F000E491CE2FD0E00EED11E11BC0883181F0C5
:10280000833239F4EEEAFAE0C591D49108E010E1A0
:1028100010C0843251F4C4EFD1E007E812E109C0DE
:10282000C8EED3E00FE412E104C0C0EDD7E002E04F
:102830001FE080917C01882389F010927C010E9426
:10284000F3269E0120953095820F931F90937A0175
:102850008093790110927E0110927D01809179011F
:1028600090917A010E94FF268C179D0790F0E091CD
:102870007901F0917A01CE0FDF1FD0937A01C093D6
:10288000790189E791E0F801DF91CF911F910F91D4
:102890000994DF91CF911F910F9108952EB1342F9C
:1028A000309523233EB1432B3FB7F894FC01680FCA
:1028B000791FE617F70789F0819198E04EB900007B
:1028C00000C087FF2EB9880F000000C000C000C004
:1028D0002EB900C09A9591F7ECCF3FBF08952DB166
:1028E000242B2DB99B01220F331F620F731F0E94EF
:1028F0004E1487EC90E00197F1F700C000000895B6
:1029000044E00C946F144F925F926F927F928F927B
:102910009F92AF92BF92CF92DF92EF92FF920F936E
:102920001F93CF93DF937C01DC01ED91FC91CF01EC
:10293000815095458F3F910510F4B5E5FB27EB01DC
:102940006A80662009F4BFC2EF3FF10579F070F0AC
:10295000EE3DFC4519F01092820173C39091820103
:1029600081E0892780938201A0E06CC3A09182015D
:10297000AA2309F4EBC010928201E03CF10540F477
:10298000E038F10508F073C0E034F105D0F505C07A
:10299000EF3FF10509F008F4A0C021E030E040E08D
:1029A00050E060E070E080E090E00E2F0E94113275
:1029B000B09183012B2BB09184013B2BB091850109
:1029C0004B2BB09186015B2BB09187016B2BB091A3
:1029D00088017B2BB09189018B2BB0918A019B2BB5
:1029E00020938301309384014093850150938601A5
:1029F00060938701709388018093890190938A0185
:102A0000A1C021E030E040E050E060E070E080E014
:102A100090E08F01005411090E941132B0918B0196
:102A20002B2BB0918C013B2BB0918D014B2BB09196
:102A30008E015B2BB0918F016B2BB09190017B2BA2
:102A4000B09191018B2BB09192019B2B20938B0124
:102A500030938C0140938D0150938E0160938F01D0
:102A60007093900180939101909392016BC021E04B
:102A700030E040E050E060E070E080E090E08F0106
:102A8000005811090E941132B09193012B2BB09183
:102A900094013B2BB09195014B2BB09196015B2B90
:102AA000B09197016B2BB09198017B2BB09199015C
:102AB0008B2BB0919A019B2B20939301309394011F
:102AC00040939501509396016093970170939801FC
:102AD0008093990190939A0135C021E030E040E065
:102AE00050E060E070E080E090E08F01005C110950
:102AF0000E941132B0919B012B2BB0919C013B2B7A
:102B0000B0919D014B2BB0919E015B2BB0919F0129
:102B10006B2BB091A0017B2BB091A1018B2BB091BD
:102B2000A2019B2B20939B0130939C0140939D011C
:102B300050939E0160939F017093A0018093A10127
:102B40009093A201E701F983E8837CC2E034F105A8
:102B5000D0F4A0908301B0908401E0908501F090C2
:102B6000860110918701D0918801C0918901B091AF
:102B70008A0121E030E040E050E060E070E080E079
:102B800090E00E2F5DC0E038F105E8F4A0908B01D5
:102B9000B0908C01E0908D01F0908E0110918F012A
:102BA000D0919001C0919101B091920121E030E06B
:102BB00040E050E060E070E080E090E06F0100E411
:102BC000C01AD1083CC0E03CF105E8F4A0909301A4
:102BD000B0909401E0909501F090960110919701CA
:102BE000D0919801C0919901B0919A0121E030E013
:102BF00040E050E060E070E080E090E06F0100E8CD
:102C0000C01AD1081CC0A0909B01B0909C01E0901C
:102C10009D01F0909E0110919F01D091A001C09163
:102C2000A101B091A20121E030E040E050E060E07D
:102C300070E080E090E06F0100ECC01AD1080C2D2C
:102C40000E9411324A2C42225B2C53227E2C742289
:102C50008F2C8522912E9622D723C823B92321E0D9
:102C600030E040E050E060E070E080E090E0E03490
:102C7000F10510F40E2F0FC08F01E038F10518F4A4
:102C80000054110908C0E03CF10518F4005811097E
:102C900002C0005C11090E94113259016A017B01D6
:102CA0008C019201472D582D692D7D2F8C2F9B2F44
:102CB0000E942A3209F0C5C1E03CF10548F4E03831
:102CC000F10508F084C0E034F10508F042C005C009
:102CD000EF3FF10509F008F4B8C021E030E040E032
:102CE00050E060E070E080E090E00E2F0E94113232
:102CF000209530954095509560957095809590956C
:102D0000E09183012E23E09184013E23E09185012F
:102D10004E23E09186015E23E09187016E23E091CE
:102D200088017E23E09189018E23E0918A019E2310
:102D30002093830130938401409385015093860151
:102D400060938701709388018093890190938A0131
:102D500079C18F010054110921E030E040E050E0DA
:102D600060E070E080E090E00E94113220953095A4
:102D7000409550956095709580959095E0918B0168
:102D80002E23E0918C013E23E0918D014E23E091B2
:102D90008E015E23E0918F016E23E09190017E23EE
:102DA000E09191018E23E09192019E2320938B016B
:102DB00030938C0140938D0150938E0160938F016D
:102DC0007093900180939101909392013BC18F0188
:102DD0000058110921E030E040E050E060E070E090
:102DE00080E090E00E9411322095309540955095FA
:102DF0006095709580959095E09193012E23E091D8
:102E000094013E23E09195014E23E09196015E23CB
:102E1000E09197016E23E09198017E23E091990162
:102E20008E23E0919A019E23209393013093940185
:102E30004093950150939601609397017093980188
:102E40008093990190939A01FDC08F01005C110954
:102E500021E030E040E050E060E070E080E090E0B1
:102E60000E9411322095309540955095609570954F
:102E700080959095E0919B012E23E0919C013E234B
:102E8000E0919D014E23E0919E015E23E0919F0120
:102E90006E23E091A0017E23E091A1018E23E091B9
:102EA000A2019E2320939B0130939C0140939D019E
:102EB00050939E0160939F017093A0018093A101A4
:102EC0009093A201BFC0EF3FF10511F008F0B6C02A
:102ED000E034F105D0F4609083017090840180901B
:102EE000850190908601D0918701C0918801B091B1
:102EF000890150908A0121E030E040E050E060E03C
:102F000070E080E090E00E2F59C0E038F105E0F469
:102F100060908B0170908C0180908D0190908E015B
:102F2000D0918F01C0919001B09191015090920188
:102F300021E030E040E050E060E070E080E090E0D0
:102F40008F01005411093AC0E03CF105E0F46090B3
:102F50009301709094018090950190909601D0918A
:102F60009701C0919801B091990150909A0121E088
:102F700030E040E050E060E070E080E090E08F0101
:102F8000005811091BC060909B0170909C018090BB
:102F90009D0190909E01D0919F01C091A001B091A0
:102FA000A1015090A20121E030E040E050E060E05B
:102FB00070E080E090E08F01005C11090E94113206
:102FC0006222732284229522D623C723B823592252
:102FD000E034F10550F421E030E040E050E060E002
:102FE00070E080E090E00E2F17C08F01E038F1050F
:102FF00018F40054110908C0E03CF10518F4005819
:10300000110902C0005C110921E030E040E050E00D
:1030100060E070E080E090E00E94113259016A01A6
:103020007B018C01A1E09301A4016D2F7C2F8B2FDC
:10303000952D0E942A3219F4A0E001C0A1E0A170F0
:1030400001C0A62D8A2FDF91CF911F910F91FF9084
:10305000EF90DF90CF90BF90AF909F908F907F9038
:103060006F905F904F9008950F931F93CF93DF93CE
:10307000C62FD42F022FFC0182818823C9F06093D0
:10308000A5010E94F3269093A4018093A30180E2FE
:103090008C0F883008F050C0C77081E001C0880FE5
:1030A000CA95EAF7DF91CF911F910F910C94F41B11
:1030B0001091A501161330C08091A3019091A40135
:1030C0000E94FF26883C910538F5C0E2CD0F1D1700
:1030D000B9F080E2810F883040F4177081E001C0C0
:1030E000880F1A95EAF70E94FB1BC83048F481E06C
:1030F0009D2F977001C0880F9A95EAF70E94F41BE4
:10310000802F0E94E11BC830B8F4D77081E001C065
:10311000880FDA95EAF70AC080E28C0F883060F4F5
:10312000C77081E001C0880FCA95EAF7DF91CF919F
:103130001F910F910C94FB1BDF91CF911F910F9169
:1031400008959C01CB01213F4CE53407F9F078F458
:10315000283DFCE53F07B9F0293D4CE5340711F166
:10316000273D3C4531F526E241EE61EE1EC0233F8E
:10317000FCE53F0799F070F0243F3C45D1F427E28D
:1031800045EE66EE12C027E245EE0EC026E241EEA5
:1031900060EE0BC027E245EE64EE07C026E241EE8A
:1031A00062EE03C028E241E065EE0E94341880E040
:1031B0000895FC018281882319F01092A5010895D9
:1031C00081E008959093AB018093AA010895E09166
:1031D000AA01F091AB01309721F00190F081E02D30
:1031E000099480E00895E091AA01F091AB01309735
:1031F00099F020912201222359F02091BB0227FF50
:1032000007C0DC012C9111962C93119725E02C938B
:103210000280F381E02D09940895E091AA01F091D4
:10322000AB01309739F022E0DC012C930480F5816A
:10323000E02D099408952091A8013091A9018217E9
:10324000930771F09093A9018093A801E091AA01DE
:10325000F091AB01309721F00680F781E02D0994C1
:1032600008952091A6013091A7018217930771F06C
:103270009093A7018093A601E091AA01F091AB0180
:10328000309721F00084F185E02D0994089585B7E9
:10329000806885BF85B7806885BF089508950895C3
:1032A0000C944F1908950C9452190E9447190E94CA
:1032B0004E190C94501981E008950E94EA260E944C
:1032C0004C0D0E9473270E94AD290E9471130C942B
:1032D00053194F925F927F928F929F92AF92BF92BB
:1032E000CF92DF92EF92FF920F931F93CF93DF93D2
:1032F000CDB7DEB72A970FB6F894DEBF0FBECDBFAD
:103300000E94970D0E945B19811111C08FEF898374
:103310008A831B820E94F3268160782F9D838C8391
:1033200049815A816B818D810E94271A57C09DEA7D
:10333000C92E91E0D92E00E010E0AA24A394B12C6C
:10334000702E802F0E94420D4C01F6014190519049
:103350006F01482659264114510431F40F5F1F4F65
:103360000530110569F7D2CF80914F0281FD0E948F
:103370004B0D20E030E07501022E02C0EE0CFF1C68
:103380000A94E2F7C70184219521892B09F12E8344
:103390007F828E209F2091E0892809F490E0988711
:1033A0000E94F3268160782F9A8789874E815F81FA
:1033B00068858A850E94271A000F111FF801E355BE
:1033C000FE4F80819181E826F926F182E08206C0D5
:1033D0002F5F3F4F2F30310571F6C0CF0E94062975
:1033E0001091AC010E94E7181817D9F00E94E71855
:1033F0008093AC012A960FB6F894DEBF0FBECDBF06
:10340000DF91CF911F910F91FF90EF90DF90CF90C0
:10341000BF90AF909F908F907F905F904F900C9453
:1034200058082A960FB6F894DEBF0FBECDBFDF91C5
:10343000CF911F910F91FF90EF90DF90CF90BF90B1
:10344000AF909F908F907F905F904F900895CF9313
:10345000DF93CDB7DEB72B970FB6F894DEBF0FBE64
:10346000CDBF4F83588769877A878B87DE01119696
:1034700086E0FD0111928A95E9F785E0FE01379615
:1034800001900D928A95E1F749815A816B817C8187
:103490008D819E810E947A212B960FB6F894DEBF13
:1034A0000FBECDBFDF91CF910895FC018081918146
:1034B0000E9446240895882309F41AC18238C1F471
:1034C0000E94E71881FD14C169E380911001909179
:1034D00011010E9425260E94D1242FEF81EE94E055
:1034E000215080409040E1F700C0000069E319C01E
:1034F0008338F9F40E94E71880FDFAC063E58091F3
:103500001001909111010E9425260E94D1242FEFD5
:1035100081EE94E0215080409040E1F700C000002F
:1035200063E580911001909111010E9430260C9466
:10353000D1248438C1F40E94E71882FDD9C067E421
:1035400080911001909111010E9425260E94D124A2
:103550002FEF81EE94E0215080409040E1F700C0D1
:10356000000067E4DECF9CEF980F913A40F4682F9B
:1035700080911001909111010E942526D8CF90E2F0
:10358000980F983050F4877091E001C0990F8A9598
:10359000EAF7892F0E948824CACF9BE5980F9330C1
:1035A00070F4853A29F0863A31F083E890E005C05E
:1035B00081E890E002C082E890E00C941B1998E545
:1035C000980F973108F08EC0883A09F445C0893ABF
:1035D00009F445C08A3A09F445C08B3A09F445C05C
:1035E0008C3A09F445C08B3B09F445C08C3B09F487
:1035F00045C08D3A09F445C0803B09F445C08E3A78
:1036000009F445C08F3A09F445C0813B09F445C02F
:10361000823B09F445C0833B09F445C0843B09F46F
:1036200045C0853B09F445C0863B09F445C0873B4E
:1036300009F445C0883B09F445C0893B09F445C0FD
:103640008D3B09F445C08E3B09F445C08A3B09F423
:1036500045C080E090E044C082EE90E041C089EE39
:1036600090E03EC08AEE90E03BC085EB90E038C031
:1036700086EB90E035C083EB90E032C084EB90E0C5
:103680002FC087EB90E02CC08CEC90E029C08DEC33
:1036900090E026C083E891E023C08AE891E020C052
:1036A00082E991E01DC084E991E01AC081E292E0D4
:1036B00017C083E292E014C084E292E011C085E278
:1036C00092E00EC086E292E00BC087E292E008C072
:1036D0008FE690E005C080E790E002C08AE292E0C9
:1036E0000C943119803F20F00E940E280C94FB2886
:1036F0000895882309F464C0823879F40E94E71899
:1037000081FF5EC069E380911001909111010E94D8
:1037100025260E94D12469E310C08338B1F40E94A9
:10372000E71880FF4DC063E5809110019091110171
:103730000E9425260E94D12463E58091100190917A
:1037400011010E9430260C94D124843879F40E940F
:10375000E71882FF35C067E4809110019091110154
:103760000E9425260E94D12467E4E7CF9CEF980FA2
:10377000913A10F4682FE1CF90E2980F983050F40E
:10378000877091E001C0990F8A95EAF7892F0E940E
:103790008E24D9CF9BE5980F933020F480E090E001
:1037A0000C941B1998E5980F973120F480E090E075
:1037B0000C943119803F20F00E9476280C94FB284D
:1037C0000895CF93C82F0E945B1AC93349F42FEF95
:1037D00083EC99E0215080409040E1F700C0000068
:1037E0008C2FCF910C94791B882321F00E94882480
:1037F0000C94D1240895882321F00E948E240C94E7
:10380000D12408954F925F926F927F92BF92CF9290
:10381000DF92EF92FF920F931F93CF93DF937C0180
:10382000062FC72FFC01158112951F70D281D1116F
:103830000E94A5240E947E24882379F0DD2369F06C
:1038400080E2800F883048F082E00E941C250E94B0
:103850007E2491E0B82EB92601C0B12CCC2EC294A2
:103860008FE0C822D12CF601E659FF4F0C94F131BC
:103870008C2F807FCF70882311F0C295C07FDD230D
:1038800099F0CC2309F4C4C180E2800F883010F095
:10389000011104C08C2F0E94882403C08C2F0E9429
:1038A00098240E94D124B4C1802F0E94791BCC237C
:1038B00009F4F7C180E2800F883010F0011104C0D4
:1038C0008C2F0E948E2403C08C2F0E949E240E9465
:1038D000D124E7C18C2F807FCF70803211F0C29548
:1038E000C07F002319F00130C9F022C0DD2371F040
:1038F000112341F0113031F40E94B8248C2B0E9426
:10390000BE24CFC10E94B8248C2B3AC1112319F0D8
:10391000113009F4C6C10E94C72418C0DD2321F06C
:10392000163008F0BEC10EC0153008F0BAC10EC086
:10393000DD2351F0112331F0F701858180FF68C14B
:103940008F7085838C2F1CC1111173C18C2F1EC1E8
:103950008C2F86958695837090E0009719F00197DB
:1039600061F09FC1DD2321F0802F9C2F937002C056
:1039700080E090E00E941B19A4C1DD2321F0802F7C
:103980009C2F937002C080E090E00E94311999C191
:10399000DD23F9F0053F51F0063F71F0043FA9F433
:1039A0008091B5029091B60281600BC08091B50202
:1039B0009091B602826005C08091B5029091B602E6
:1039C00084609093B6028093B502802F0E940E28E7
:1039D0001EC0053F51F0063F71F0043FA9F48091ED
:1039E000B5029091B6028E7F0BC08091B502909186
:1039F000B6028D7F05C08091B5029091B6028B7F93
:103A00009093B6028093B502802F0E9476280E9480
:103A1000FB2857C18C2F837009F04BC0D1114DC1C9
:103A2000202F229526952770220F220F602F6F706E
:103A3000862F90E0A0E0B0E02C013D01022E04C0F2
:103A4000440C551C661C771C0A94D2F704FF10C066
:103A50008FE090E0A0E0B0E004C0880F991FAA1F9B
:103A6000BB1F2A95D2F780959095A095B09503C07D
:103A700080E090E0DC01C695C695C370D0E0BC0143
:103A8000CD016429752986299729C230D10559F0BD
:103A9000C330D10559F0219719F00E94BF220DC102
:103AA0000E94AD220AC10E94D12207C10E94AB220E
:103AB00004C1DD2319F08C2F817001C08695882305
:103AC00009F4FBC0202F229526952770220F220F84
:103AD000602F6F70862F90E0A0E0B0E02C013D01D8
:103AE000022E04C0440C551C661C771C0A94D2F7A5
:103AF00004FF10C08FE090E0A0E0B0E004C0880FA9
:103B0000991FAA1FBB1F2A95D2F780959095A09563
:103B1000B09503C080E090E0DC01C695C695C37007
:103B2000D0E0BC01CD016429752986299729C230CE
:103B3000D10559F0C330D10559F0219719F00E94F1
:103B40008523BBC00E947323B8C00E949723B5C0D1
:103B50000E94E622B2C0802F90E0FC01E05EF109F5
:103B6000E531F10508F050C0E658FF4F0C94F131F3
:103B70000F708C2F8F71DD2331F00E940C23802F6A
:103B80000E94F41B8EC00E942D23802F0E94FB1BDD
:103B900088C0DD2341F0153008F083C08C2F8F7171
:103BA0000E9452237EC0163008F07BC0F7CFDD2381
:103BB00039F08C2F8F710E940C2373C0DD23C9F361
:103BC0008C2F8F710E942D236CC0DD2329F08C2F48
:103BD0008F710E94F72265C00E94F22262C0DD232D
:103BE00049F0CF718C2F0E940C2363E08C2F0E9430
:103BF000072557C081E00E941C25123008F451C0EF
:103C000082E00E941C254DC0DD2331F0112389F292
:103C1000802F0E945B1A45C0112391F2093349F4A9
:103C2000FFEF23EC89E0F15020408040E1F700C035
:103C30000000802F0E94791B34C04C2F4F70602FE2
:103C4000C7010E946C070E941E223BC0D11139C0DF
:103C5000CF70D0E0C230D10599F03CF4209769F0E4
:103C60002197F9F40E94E7292CC0C430D10571F0E6
:103C700054F02597B1F480E00AC00E94CA2921C0FF
:103C80000E94262A1EC00E942D2A1BC085E00E9489
:103C9000502A17C04C2F4F70602FC7010E94930A03
:103CA00010C098E0C916D10441F05CF0FAE0CF1AD8
:103CB000D10822E0C216D10420F40E94E7180E9425
:103CC0005808BB20F1F00E947A2480FD1AC0F70149
:103CD00012820E9474240E940C23C7010E948F1E2E
:103CE0000E947424DF91CF911F910F91FF90EF906C
:103CF000DF90CF90BF907F906F905F904F900C942B
:103D00002D23DF91CF911F910F91FF90EF90DF90C6
:103D1000CF90BF907F906F905F904F9008950F93DA
:103D20001F93CF93DF93EC01888199812B813C8194
:103D3000232BB9F09F3F11F48F3F99F0CE010E94E1
:103D40006A08882371F0688179818A810E945124F0
:103D50008C010E94A9230E94AA22B801CE010E94D0
:103D6000021CDF91CF911F910F9108950E94A5240D
:103D70000E94B5240E94D1240E94A1290E94FB2800
:103D800080E090E00E941B1980E090E00C943119D3
:103D900080911001909111010E943B260C94B61E57
:103DA0000E9495240C94C81EE92FE295EF70F0E074
:103DB0003297EE30F105B0F4E157FF4F0C94F1313A
:103DC000803F91F018F4803E68F40EC0843F51F4B7
:103DD0000BC0803E48F0813F29F406C093FB882742
:103DE00080F9089580E0089581E008950E944624B6
:103DF0000E94D41E0895CF93DF9300D000D01F926D
:103E0000CDB7DEB70F900F900F900F900F90DF910E
:103E1000CF910895CF93DF9300D000D000D0CDB7DD
:103E2000DEB726960FB6F894DEBF0FBECDBFDF918A
:103E3000CF9108951F93CF93DF93C091B80116E0FF
:103E40008091B901C81799F0D0E01C9FF0011D9F27
:103E5000F00D1124E654FE4F40815181628173813F
:103E6000848195810E940A1F2196C770E9CFDF9156
:103E7000CF911F9108954091EA015091EB0160911B
:103E8000EC017091ED018091EE019091EF010C94A5
:103E90000A1F8091EF0182958F7009F054C08091C4
:103EA000EC01882309F44FC08091B801A091B901B9
:103EB0006091EA017091EB014091ED015091EE01AA
:103EC000B6E08A1709F43FC090E041155105C1F1F1
:103ED0007F3F11F46F3FA1F1B89FF001B99FF00D42
:103EE0001124E654FE4F218172132AC020816213EF
:103EF00027C02281211124C0238134812417350752
:103F000010F421503109241B350B283C3105C0F435
:103F10002091EF012F7020612093EF0126E0289F70
:103F2000F001299FF00D1124E154FE4F80818F7024
:103F3000806180838AEE91E00E948F1E0C941A1F8C
:103F400001968770BECF0895CF92DF92EF92FF92D5
:103F50000F931F93CF93DF93CDB7DEB762970FB662
:103F6000F894DEBF0FBECDBF8C0185E0F801DE0105
:103F70001D9601900D928A95E1F7D8014C9111960A
:103F80005C91119712966C9112971396CD90DC90DC
:103F900014973091EA017091EB018091ED019091BD
:103FA000EE01009709F46BC17F3F19F43F3F09F41C
:103FB00066C1E090EC01EE2009F4C0C02091EF0151
:103FC000C816D90628F0F601E81BF90BCF0104C08A
:103FD000809590958C0D9D1DFF24F394883C910550
:103FE00078F0F12C207F09F0C6C07C2DD98AC88AD0
:103FF00089890E94FB1E8AEE91E00E948F1EB1C04B
:10400000822F807F09F046C0751314C0341312C08C
:10401000611110C02F7020612093EF010E943B1F9F
:104020008AEE91E00E948F1E8091EF01D8011596D3
:104030008C932EC0CD2819F15F3F11F44F3FF9F05A
:10404000F62E61111CC08091B8012091B90136E0B3
:10405000821709F45AC090E0389FF001399FF00DA3
:104060001124E654FE4F7181571306C07081471327
:1040700003C07281711103C001968770E9CFF62EDB
:10408000662309F427C18091EF0181608093EF01DD
:10409000F12C20C1751308C0341306C0611104C08F
:1040A0008091EF01D801C3C04D875E878D859E85C5
:1040B0006A8B0E94F61E6A898823E1F16623D1F19A
:1040C0002091EF01822F82958F7090E0029774F01B
:1040D0008091EA019091EB0198878F831986DB86A6
:1040E000CA862C87CE0107960E948F1E86E0F801B3
:1040F000AAEEB1E001900D928A95E1F70E94491F66
:104100000E943B1FFF24F394E5C04D875E878D8599
:104110009E850E944624292F22952F7030E0223060
:1041200031050CF0CBC09F7009F0C5C0805E8830AF
:1041300008F4D0C0C8010E948F1EE4CFC816D9066B
:1041400008F453C0F601E81BF90BCF01883C910538
:1041500008F450C0F12C7C2DD98AC88A89890E9424
:10416000FB1EEAEEF1E086E0DF011D928A95E9F799
:104170000E943B1FAFC0751314C0341312C06111ED
:1041800010C08091EF01F8018583C8010E948F1E45
:1041900086E0EAEEF1E0DF011D928A95E9F7FE2C58
:1041A00099C04D875E878D859E856A8B0E94F61E1D
:1041B0006A89882309F4BECF662309F4BBCF209116
:1041C000EF01822F82958F7090E002970CF48ECFD2
:1041D0008091EA019091EB019A8389831B82DD82B1
:1041E000CC822E83CE0101967FCF809590958C0D49
:1041F0009D1DACCFF62E662309F49CCF75132EC0FF
:1042000034132CC02091EF0120FD1FC0822F829516
:104210008F70D9F0D80115962C9315978F3049F0EF
:104220008F5F982F9295907F822F8F70892B159694
:104230008C93C8010E948F1E86E0F801AAEEB1E0BF
:1042400001900D928A95E1F793CF86E0F801AAEEEE
:10425000B1E001900D928A95E1F73CC04D875E87F1
:104260008D859E850E94F61E811140CF8091EF01C1
:1042700081608093EF01C8010E948F1E2BC06623CE
:1042800009F458CF4D875E878D859E850E94F61E66
:10429000F82E882309F44ECF86E0F801AAEEB1E0AB
:1042A00001900D928A95E1F78AEE91E00E94551AED
:1042B0000E94491F5DCF811139CF0CC024303105D8
:1042C0000CF038CF9F7009F431CFF8019581907FC1
:1042D00009F02CCF8F2D62960FB6F894DEBF0FBE7B
:1042E000CDBFDF91CF911F910F91FF90EF90DF90A5
:1042F000CF9008951F93CF93DF93CDB7DEB72C9760
:104300000FB6F894DEBF0FBECDBF4F8358876987C5
:104310007A878B879C87CE0107960E94A41F8823EB
:1043200069F08F8198852A853B85232BF1F19F3F8A
:1043300009F063C08F3F09F060C037C086E0FE011E
:104340003796DE01119601900D928A95E1F76F8103
:104350007885EA85FB85309741F17F3F11F46F3F07
:1043600021F12091B90130E0C901019687709927A8
:104370004091B80150E08417950709F447C069835C
:104380007A83FD83EC8396E0929FD001939FB00DDA
:104390001124A654BE4FFE01319601900D929A95BC
:1043A000E1F78093B9010E941A1F16E08091B801CD
:1043B0009091B9018917C1F1189FC0011124865449
:1043C0009E4F0E94A41F882379F1E091B8011E9F9F
:1043D000F0011124E654FE4F4081518162817381C6
:1043E000848195810E940A1F8091B80190E0019616
:1043F000877099278093B801D9CF4F8158856985F7
:104400007A858B859C850E940A1FCFCF0E94D01E83
:104410001092B9011092B801EAEEF1E086E0DF01F6
:104420001D928A95E9F7C1CF2C960FB6F894DEBF9E
:104430000FBECDBFDF91CF911F910895EF92FF92F4
:104440000F931F93CF93DF938C01892B09F46CC0DA
:10445000F12CEE24E394E8012196F801849184374D
:1044600040F4843008F051C0813081F0823019F17D
:104470005BC0853709F444C0A8F19CE7980F9037DA
:1044800008F052C08F770E94791B41C00E5F1F4F0A
:10449000FE01C49180E28C0F883048F4C7708E2DE5
:1044A00001C0880FCA95EAF70E94A82414C08C2F77
:1044B0000E945B1A2DC00E5F1F4FFE01C49180E267
:1044C0008C0F883058F4C7708E2D01C0880FCA95A4
:1044D000EAF70E94AE240E94D1241AC08C2F0E94B9
:1044E000791B16C00E5F1F4FFE01C491CC2381F0D3
:1044F0008FE99FE00197F1F700C00000C150F6CFAF
:104500000E5F1F4FFE01F49003C00E945B1A8E01E4
:104510008F2D882309F49FCFEFE9FFE03197F1F762
:1045200000C000008150F5CFDF91CF911F910F9116
:10453000FF90EF90089508950C949B220E949C2276
:104540006093260270932702809328029093290299
:104550000C94B61E08950C949E220F931F93009105
:104560002602109127022091280230912902602B07
:10457000712B822B932B1F910F910C949E220F93E2
:104580001F9300912602109127022091280230915A
:10459000290260237123822393231F910F910C948E
:1045A0009E220F931F9300912602109127022091C3
:1045B00028023091290260277127822793271F91B3
:1045C0000F910C949E2208950C94E3220E94E42201
:1045D0006093220270932302809324029093250219
:1045E0000C94B61E60E070E0CB010C94E6220F93B1
:1045F0001F9341E050E060E070E08A019B0104C03D
:10460000000F111F221F331F8A95D2F7C901B8016D
:104610001F910F910C94E6220F931F9341E050E0FD
:1046200060E070E004C0440F551F661F771F8A9535
:10463000D2F78091220290912302A0912402B0919E
:1046400025028A019B01082B192B2A2B3B2BC90120
:10465000B8011F910F910C94E6220F931F9341E034
:1046600050E060E070E004C0440F551F661F771FE4
:104670008A95D2F740955095609570958091220269
:1046800090912302A0912402B09125028A019B01FE
:10469000082319232A233B23C901B8011F910F9135
:1046A0000C94E6220F931F9341E050E060E070E02D
:1046B00004C0440F551F661F771F8A95D2F780915B
:1046C000220290912302A0912402B09125028A0136
:1046D0009B01082719272A273B27C901B8011F91E9
:1046E0000F910C94E6220F931F93009122021091D8
:1046F00023022091240230912502602B712B822B02
:10470000932B1F910F910C94E6220F931F9300910E
:10471000220210912302209124023091250260236D
:104720007123822393231F910F910C94E6220F9300
:104730001F930091220210912302209124023091B4
:10474000250260277127822793271F910F910C94D0
:10475000E62208952FE0929F800D1124A82FA695A0
:10476000A695A695877051E001C0550F8A95EAF786
:1047700085E0A89FD001112420E030E070E0F9012D
:10478000EA0FFB1FE051FE4F4081CB01022E02C019
:10479000969587950A94E2F78170992781958427E9
:1047A0008523842780832F5F3F4F2530310539F7DC
:1047B00008952FE0929F800D1124682F66956695CD
:1047C0006695982F977085E0689FB001112440E0AE
:1047D00050E080E0FA01E60FF71FE051FE4F208124
:1047E00030E0092E02C0369527950A94E2F7217031
:1047F0003327042E01C0220F0A94EAF7822B4F5F61
:104800005F4F4530510531F70895BF92CF92DF9247
:10481000EF92FF920F931F93CF93DF938C01C09081
:104820002602D0902702E0902802F0902902809181
:10483000220290912302A0912402B0912502C82A5D
:10484000D92AEA2AFB2ACFE1D0E0D701C6010C2EF3
:1048500004C0B695A795979587950A94D2F780FFDF
:1048600007C0BC2EB8018C2F0E94AE0A019719F424
:10487000219758F7B12C8B2DDF91CF911F910F917C
:10488000FF90EF90DF90CF90BF900895CF93DF938C
:10489000EC010E940524BE010E94AE0ADF91CF9177
:1048A00008951F93CF93DF93EB019091B701992364
:1048B00021F0CB010E94462413C0882349F0CB018C
:1048C0000E940524182F682FCE010E94AA2304C03D
:1048D000CB010E94D923182FBE01812F0E94AE0A5E
:1048E000DF91CF911F91089580912A02859585953A
:1048F0008595089580912A028770089590912A02E3
:10490000977081E009F480E0089580914E02089547
:1049100090914E02892B80934E020895809590913C
:104920004E02892380934E02089510924E020895FC
:1049300090914D02892B80934D020895809590911E
:104940004D02892380934D02089510924D020895DF
:1049500090914C02892B80934C0208958095909100
:104960004C02892380934C02089510924C020895C2
:1049700080912B02089508950C94BB2490912B02F2
:10498000981721F080932B020C94BC2408958091F9
:104990002B02882329F010922B0280E00C94BC2477
:1049A0000895E0911001F091110180914E028083F1
:1049B000E0911001F0911101908180914D02892BBD
:1049C0008083E0911001F0911101908180914C025F
:1049D000892B808380912B02882381F0E091100144
:1049E000F09111019081892B808380911001909129
:1049F00011010E94C02581110E94C72480911001DD
:104A0000909111010C94F31808950C94042598E0EA
:104A1000899F90011124262B20932A020E940C23A7
:104A200080912A028595859585950C94052510928F
:104A30002A0280E00C94052520912A028095822389
:104A400080932A02982F977079F430E0482F082E2F
:104A5000000C550B2417350739F0859585958595FC
:104A60000E942D230C94172508956FEF7FEF80E0AF
:104A700090E00C94723280E090E00E944E3221E08F
:104A80008D3E9E4F09F020E0822F089582E090E055
:104A90000C94403283E090E00C94403284E090E04B
:104AA0000C944032682F84E090E00C94543286E0FD
:104AB00090E00C944032682F86E090E00C945432E1
:104AC000AB01BC018FE090E00C946632AB01BC01FD
:104AD00083E190E00C94663260E070E0CB010C94CE
:104AE000662560E070E0CB010E9460250C946C2587
:104AF0006DEE7EEF80E090E00E94723260E082E036
:104B000090E00E94543260E083E090E00E945432D2
:104B10001092260210922702109228021092290267
:104B200060E084E090E00E94543260E085E090E034
:104B30000E94543260E086E090E00E9454326FEFB1
:104B400087E090E00E94543240E050E0BA0188E0F3
:104B500090E00E94663260E08DE090E00E94543266
:104B600040E050E0BA0188E190E00E94663260E0E7
:104B700087E190E00E9454320C9471250C947825C2
:104B8000FC01329680912201882331F08091BB0292
:104B900087FF02C09EE101C096E080E0915028F0BE
:104BA00021912223D9F38F5FF9CF08959C01FC0155
:104BB00032969FEF80E04191461789F09F3F19F4AC
:104BC000411101C0982F8F5F8630A9F79F3F39F0C0
:104BD000F901E90FF11D97FDFA9562830895089593
:104BE000FC01329608962081261301C0108231966E
:104BF000E817F907C1F70895262F269526952695DB
:104C00002E3168F4FC01E20FF11D677021E030E005
:104C100001C0220F6A95EAF78281282B228308952A
:104C2000262F2695269526952E3170F4FC01E20F4D
:104C3000F11D677021E030E001C0220F6A95EAF7AC
:104C40002095828128232283089520912201222306
:104C500029F02091BB0227FD0C94FC250C94D6254D
:104C600020912201222329F02091BB0227FD0C94E0
:104C700010260C94F02520912201FC01329622236B
:104C800031F08091BB0287FF02C08EE101C086E057
:104C9000DF011D928A95E9F7089508950C944D2639
:104CA0000E944E268091C202843009F43CC01092CA
:104CB000500220E488E190E00FB6F894A895809324
:104CC00060000FBE2093600080E00E94DC0780E05F
:104CD0000E9458080E94B1138091510281110AC0AC
:104CE00081E0809351028091800281708093520212
:104CF0000E94DF120E944E2683B7817F846083BFAB
:104D000083B7816083BF7894889583B78E7F83BF94
:104D10000FB6F894A8958091600088618093600038
:104D2000109260000FBE089508950895CF930E94D9
:104D300094260E94970D0E949526C0E08C2F0E9419
:104D4000420D892B29F4CF5FC530C1F780E001C047
:104D500081E0CF91089508950C94AB260E94D01E57
:104D60000E94AD290E94E7180E9458081092510233
:104D70008091520281110E94A9130E94F1120C9499
:104D8000AC261F920F920FB60F9211248F939F9310
:104D9000AF93BF9380915002811113C08091B702ED
:104DA0009091B802A091B902B091BA024196A11DAA
:104DB000B11D8093B7029093B802A093B902B0934B
:104DC000BA02BF91AF919F918F910F900FBE0F903C
:104DD0001F90189582E084BD93E095BD9AEF97BD32
:104DE00080936E0008952FB7F8948091B702909148
:104DF000B802A091B902B091BA022FBF0895CF9224
:104E0000DF92EF92FF920F931F932FB7F894409188
:104E1000B7025091B8026091B9027091BA022FBFE7
:104E20006A017B01EE24FF248C0120E030E0C016F3
:104E3000D106E206F30610F4415051099A01281BED
:104E4000390BC9011F910F91FF90EF90DF90CF9028
:104E5000089578941F920F920FB60F9211248F939A
:104E60009F93AF93BF938091B7029091B802A091A6
:104E7000B902B091BA020196A11DB11D8093B7028B
:104E80009093B802A093B902B093BA02BF91AF91C8
:104E90009F918F910F900FBE0F901F90189581E0FA
:104EA0008093E00080E28093D8001092C9008FE1E7
:104EB0009EE40197F1F700C0000087E090EBDC0171
:104EC0008093CB029093CC02A093CD02B093CE02FC
:104ED0009CE088E10FB6F894A895809360000FBE1F
:104EE00090936000FFCF0E943B25811102C00E9479
:104EF000BE250E94462580934F020E944E2590E0D9
:104F00009093BC028093BB020E944A25682F70E0F8
:104F100080E090E00C94AB228091560280FF0BC0A1
:104F20006091150185E0689FB00111247595679522
:104F3000759567952BC081FF09C06091150185E0CB
:104F4000689FB00111247595679520C082FF07C046
:104F50006091150185E0689FB001112417C0909100
:104F600055029923D1F060911401961788F720918A
:104F7000150185E0289F90011124929FA001939F25
:104F8000500D112470E0CA010E94BB3160387105D8
:104F900040F46115710539F002C065E070E0862FBC
:104FA00008958FE7089581E008958091560280FF6B
:104FB00008C06091130170E07595679575956795C8
:104FC00021C081FF06C06091130170E0759567955F
:104FD00019C082FF04C06091130170E010C090916D
:104FE00055029923C1F0609112019617A0F78091A4
:104FF0001301899FC001112470E00E94BB31603809
:10500000710528F46115710521F0862F08958FE749
:10501000089581E0089561E070E0F4CF803F21F4CD
:105020000E948C27819504C0813F29F40E948C271F
:1050300080935A020895823F21F40E948C27819523
:1050400004C0833F29F40E948C278093590208955D
:10505000893F19F40E94D52705C08A3F31F40E9488
:10506000D527819580935B0208958B3F21F40E94A0
:10507000D527819504C08C3F29F40E94D5278093C1
:105080005C020895843F21F480915802816017C02A
:10509000853F21F480915802826011C0863F21F43F
:1050A0008091580284600BC0873F21F480915802A0
:1050B000886005C0883F31F48091580280618093F8
:1050C000580208958D3F21F48091560281600BC0F3
:1050D0008E3F21F480915602826005C08F3F29F4F3
:1050E000809156028460809356020895803F39F47F
:1050F00080915A0287FF6CC010925A0269C0813FAA
:1051000029F480915A021816BCF362C0909159029A
:10511000823F29F497FF5CC01092590259C0833F27
:1051200019F41916CCF354C0893F41F480915B0205
:1051300018160CF04DC010925B024AC08A3F29F449
:1051400080915B0287FF44C0F6CF8B3F39F480919A
:105150005C0287FF3DC010925C023AC08C3F29F48C
:1051600080915C021816BCF333C0843F21F4809117
:1051700058028E7F17C0853F21F4809158028D7FA1
:1051800011C0863F21F4809158028B7F0BC0873F6E
:1051900021F480915802877F05C0883F31F48091C7
:1051A00058028F7E8093580213C08D3F21F4809166
:1051B00056028E7F0BC08E3F21F4809156028D7F68
:1051C00005C08F3F29F4809156028B7F8093560251
:1051D0008091590281110EC080915A0281110AC03A
:1051E00080915B02811106C080915C02811102C036
:1051F00010925502089587E592E00E940D190E94D1
:10520000F326909354028093530208951F93CF93F3
:10521000DF9380915302909154020E94FF26AC01CB
:1052200090915502992321F02091160130E006C09B
:10523000209117018AE0289F9001112442175307FB
:1052400008F47BC080915902C0915A02D0915B0250
:1052500010915C02811107C0C1116BC0D11169C0EE
:10526000111167C06AC09F3F19F09F5F909355026C
:10527000181624F40E948C278093590280915902B9
:1052800087FF05C00E948C278195809359021C16C8
:1052900024F40E948C2780935A0280915A0287FF3F
:1052A00005C00E948C27819580935A023091590243
:1052B0003323E1F020915A022223C1F045EB34035D
:1052C000C0011124892F990F990B009709F481E0EF
:1052D0008093590235EB2303C0011124892F990FC4
:1052E000990B009709F481E080935A021D1624F46B
:1052F0000E94D52780935B0280915B0287FF05C0E7
:105300000E94D527819580935B02111624F40E9498
:10531000D52780935C0280915C0287FF05C00E94C4
:10532000D527819580935C02DF91CF911F910C94DA
:10533000FB289F3F09F099CFA1CFDF91CF911F911B
:105340000895E7E5F2E086E0DF011D928A95E9F72E
:10535000109255021092560208950E943B25811129
:1053600002C00E94BE250E9457258093BD02282FAF
:10537000269530E02630310524F081708A608093D4
:10538000BD028091BD0280FF02C0869501C080E011
:105390000C94DC072091BD02822F8695482F50E0A7
:1053A0004530510544F48F5F982F990F822F8170FB
:1053B000892B8093BD028091BD0281608093BD02E4
:1053C0000E945B258091BD0286950C94DC0780913C
:1053D000BD02982F969591F09158990F8170892B65
:1053E0008093BD028E7F91E009F490E08091BD0230
:1053F00090FB80F98093BD020E945B258091BD02E5
:1054000086950C94DC078091BD0280FD11C08160FF
:105410008093BD02813019F483E08093BD028091B6
:10542000BD020E945B258091BD0286950C94DC072D
:1054300008958091BD0280FF08C08E7F8093BD02D9
:105440000E945B2580E00C94DC0708958091BD02EA
:1054500080FD0C94192A0C94032A9091BD02892F87
:1054600086958F5F8F779170863028F4880F892B0F
:105470008093BD0202C09093BD028091BD028E7FD9
:1054800091E009F490E08091BD0290FB80F9809357
:10549000BD020E945B258091BD0286950C94DC07BD
:1054A000863008F085E0880F9091BD029170892BBD
:1054B0008093BD028E7F91E009F490E08091BD025F
:1054C00090FB80F98093BD020E945B258091BD0214
:1054D00086950C94DC0780917D0208950F931F93AD
:1054E000CF93DF9300D01F92CDB7DEB78C010E941F
:1054F000DE2C823011F0843021F584E089831B8317
:105500000A8382E08093E9008FEF9091E800815058
:1055100095FD06C095ED9A95F1F700008111F5CF44
:105520008091E80085FF0DC040E050E063E070E04E
:10553000CE0101960E94FB2C8091E8008E7780932B
:10554000E8000F900F900F90DF91CF911F910F9176
:105550000895CF93DF9300D01F92CDB7DEB720918F
:10556000C202243031F523E02983805891099B83BE
:105570008A8382E08093E9008FEF9091E800815068
:1055800095FD06C095ED9A95F1F700008111F5CFD4
:105590008091E80085FF0DC040E050E063E070E0DE
:1055A000CE0101960E94FB2C8091E8008E778093BB
:1055B000E8000F900F900F90DF91CF910895CF9357
:1055C000DF93EC010E94DE2C823011F08430F9F47C
:1055D00082E08093E9009FEF8091E800915085FD83
:1055E00006C085ED8A95F1F700009111F5CF809105
:1055F000E80085FF0CC040E050E066E070E0CE01BE
:105600000E94FB2C8091E8008E778093E800DF9168
:10561000CF910895CF93DF93EC010E94DE2C82306E
:1056200011F08430D9F580912201882339F08091DE
:10563000BB0287FF03C060E282E002C068E081E055
:105640008093E9008FEF9091E800815095FD06C0AE
:1056500095ED9A95F1F700008111F5CF8091E80062
:1056600085FF1CC080912201811105C040E050E0FF
:1056700068E070E003C070E040E050E0CE010E94BE
:10568000FB2C8091E8008E778093E80080E2FE0199
:10569000ADE5B2E001900D928A95E1F7DF91CF91EF
:1056A00008958091C102811109C00E94902E0E942C
:1056B000ED2E8091E20084608093E20008951092C4
:1056C000C1020895089508950C94AE2642E061EC5D
:1056D00081E00E940A2E42E261EC82E00C940A2EE4
:1056E0008091C402833009F460C030F4813071F0DD
:1056F000823009F499C008958A3009F485C08B304E
:1057000009F46BC0893009F0A7C020C08091C302A2
:10571000813A09F0A1C08091E800877F8093E8007A
:105720008091C7029091C802892B21F460E28DE537
:1057300092E003C060E080E090E070E00E94462DBF
:105740008091E8008B778093E80008958091C302F0
:10575000813209F081C08091C7029091C8020297FE
:1057600008F07AC08091E800877F8093E8008091FC
:10577000E80082FD05C08091C2028111F8CF6CC0A3
:105780002091F3008091F20090E0922B029729F48F
:105790008091F1008B7F813021F48091F100809322
:1057A0007D028091E8008B7753C08091C302813ADB
:1057B00009F052C08091C7029091C802892B09F06C
:1057C0004BC08091E800877F8093E8008091E800DB
:1057D00080FFFCCF8091220136C08091C3028132CC
:1057E000D9F58091C7029091C802892BA9F58091C3
:1057F000E800877F8093E8000E943F2E8091C502D9
:10580000809322010C94D01E8091C302813221F535
:105810008091E800877F8093E8000E943F2E80916E
:10582000C60280937E0208958091C302813AA1F45A
:105830008091E800877F8093E8008091E80080FFF6
:10584000FCCF80917E028093F1008091E8008E77FA
:105850008093E8000C943F2E089584B7877F84BF1F
:105860000FB6F894A89580916000886180936000DD
:10587000109260000FBE80E880936100109261007A
:105880000E9455190E94902E0E94ED2E8091E200F8
:1058900084608093E20078940E947C310E945D19BC
:1058A00088E191E00E94E2188091C202853069F49B
:1058B0000E9450268091C0028823B1F30E94962650
:1058C000882391F30E94E52CEFCF0E9469190E9472
:1058D000B413EACF0C946C2C292F332723303105D5
:1058E000C9F064F42130310581F02230310509F02E
:1058F0004CC08BE390E021EF3CE04BC021323105FE
:1059000021F12232310589F140C082E190E02CE2A0
:105910003DE03FC099278130910571F02CF4892B2F
:10592000A1F5EDEEFCE00DC08230910541F003974A
:1059300061F5E5ECFCE005C0EDEDFCE002C0EBEC50
:10594000FCE0849190E09F0124C06115710541F055
:1059500061307105D1F489E090E02CE13DE019C09F
:1059600089E090E023E03DE014C06115710541F04D
:105970006130710551F480EC90E02EE33DE009C008
:1059800080E490E02EEF3DE004C080E090E020E075
:1059900030E0FA013183208308950895CF93C82F12
:1059A0000E94CD2CC0937F02CF9108958091C202B6
:1059B000843011F081E0089582E0089580917F02A3
:1059C000811102C00C94D62C089580E189BD82E13A
:1059D00089BD09B400FEFDCF8091D8008F7D8093F2
:1059E000D8008091E00082608093E0008091E00028
:1059F00081FDFCCF0895CF92DF92EF92FF920F933B
:105A00001F93CF93DF93EC018B016A010E945E2EFE
:105A1000811133C0C114D10439F0F6018081918124
:105A2000081B190BC80FD91FE12CF12C011511050A
:105A300019F18091E80085FD16C08091E8008E770D
:105A40008093E800C114D10449F0F601808191816E
:105A5000E80EF91EF182E08285E00FC00E945E2E02
:105A6000882321F30AC089918093F1000150110924
:105A7000FFEFEF1AFF0ADACF80E0DF91CF911F919D
:105A80000F91FF90EF90DF90CF9008952091C90281
:105A90003091CA022617370748F06115710539F4AD
:105AA0002091E8002E772093E80001C0B90140E082
:105AB00061157105A9F12091C202222309F443C0A6
:105AC000253009F442C02091E80023FD40C0209118
:105AD000E80022FD32C02091E80020FFE9CF40918C
