:100000000C94F5060C943C070C943C070C943C07AC
:100010000C943C070C943C070C943C070C943C0754
:100020000C943C070C943C070C9495260C94672781
:100030000C9454210C943C070C943C070C943C0702
:100040000C943C070C943C070C943C070C943C0724
:100050000C943C070C94BC210C943C070C943C077A
:100060000C943C070C943C070C943C070C943C0704
:100070000C943C070C943C070C943C070C943C07F4
:100080000C943C070C943C070C943C070C943C07E4
:100090000C943C070C943C070C943C070C943C07D4
:1000A0000C943C070C943C070C943C0728082A0845
:1000B00035082C082E08300832083408370839086B
:1000C0003B0846083D083F084108430845084808E2
:1000D0004A174A177C177C17BA17FC18FC18FC182B
:1000E000DA17FC187B187B18EC18FC18FC18F518AC
:1000F0008818881888188818881888188818881800
:1001000088188818881888188818881888188818EF
:100110009918A718AE18B518BF1887198719991913
:100120009919901999199919991987198719951970
:10013000991999199519D427FB27ED28FB27ED2844
:1001400047286A28ED28C028CF2829001E001F0054
:100150002000210022002300240025002600270083
:100160002D002E0035002A002B43000014001A0039
:100170000800150017001C0018000C0012001300E6
:100180002F0030003100E0000000040016000700DE
:1001900009000A000B000D000E000F0033003400B0
:1001A000280000000000E1001D001B0006001900EF
:1001B000050011001000360037003800E50052003D
:1001C0004C00E0000000E300E200294100000000D4
:1001D0002C0000000251E600E400500051004F00E6
:1001E00001003A003B003C003D003E003F00400063
:1001F00041004200430044004500010001000100AD
:1002000000000100010001000100010001000100E7
:100210004A004D0049004B004E00005C0100000008
:100220004D0001000100010001005000510052008A
:100230004F002A004C0001000000000001000100F6
:1002400001000100010001004E0001000100010059
:10025000010049004A004B000100000001000100BC
:100260000100000000000100000001000100010089
:100270004C004D004E0001003A003B003C003D00A8
:100280003E003F0040004100420043004400450062
:100290000100010001000000010001000100010057
:1002A0000100010001000100010001000100010046
:1002B0002A0039000000C25CCD5CCE5CCF5CD05C13
:1002C000D15CD25CD35CD45CD55C01000100000041
:1002D00000000100C35CC55CC65CC75CC85CC95C4F
:1002E000CA5C010001000100010001000100005C86
:1002F00000000100010001000000000001000000FA
:1003000001000100010001000100010001000100E5
:1003100001000100010001000100010001000100D5
:1003200001000100010001000100010000000100C6
:1003300001000100010001000100010001000100B5
:1003400001000100010001000100000001000100A6
:100350000100010001000100010001000100010095
:100360000100010000000000010001000100010087
:100370000100010001000100010001000100010075
:100380000100010001000000010001000100000067
:100390000000010000000100010001000100010057
:1003A0000100010001000100010001000100010045
:1003B0000100010001000100010001000100010035
:1003C0000100000001000100010001000100010026
:1003D0000100010001000100010001000100010015
:1003E0000000010001000100010001000100010006
:1003F00001000100010001000100000000000100F7
:1004000001000100010001000100010001000100E4
:1004100001000100010001000100010000000100D5
:1004200001000100000000000100000001000100C7
:1004300001000100010001000100010001000100B4
:1004400001000100010001000100010001000100A4
:100450000100010001000100000001000100010095
:100460000100010001000100010001000100010084
:100470000100010001000000010001000100010075
:100480000100010001000100010001000100010064
:100490000000000001000100010001000100010056
:1004A0000100010001000100010001000100010044
:1004B0000100000001000100010000000000010037
:1004C0000000010001000100010001000100010025
:1004D0000100010001000100010001000100010014
:1004E0000100010001000100010001000100000005
:1004F00001000100010001000100010001000100F4
:1005000001000100010001000100010000000100E4
:1005100001000100010001000100010001000100D3
:1005200001000100010000000000010001000100C5
:1005300001000100010001000100010001000100B3
:1005400001000100010001000000010001000100A4
:100550000000000001000000010001000100010096
:100560000100010001000100010001000100010083
:100570000100010001000100010001000100010073
:100580000100010000000100010001000100010064
:100590000100010001000100010001000100010053
:1005A0000100000001000100010001000100010044
:1005B0000100010001000100010001000000000035
:1005C0000100010001000100010001000100010023
:1005D0000100010001000100010001000100000014
:1005E0000100010001000000000001000000010006
:1005F00001000100010001000100010001000100F3
:1006000001000100010001000100010001000100E2
:1006100001000100010001000100000001000100D3
:1006200001000100010001000100010001000100C2
:1006300001000100010001000000010001000100B3
:1006400001000100010001000100010001000100A2
:100650000100000000000100010001000100010094
:100660000100010001000100010001000100010082
:100670000100010000000100010001000000000075
:100680000100000001000100010001000100010063
:100690000100010001000100010001000100010052
:1006A0000100010001000100010001000100010042
:1006B0000000010001000100010001000100010033
:1006C0000100010001000100010001000100000023
:1006D0000100010001000100010001000100010012
:1006E0000100010001000100000000000100010004
:1006F00001000100010001000100010001000100F2
:1007000001000100010001000100000001000100E2
:1007100001000000000001000000010001000100D4
:1007200001000100010001000100010001000100C1
:1007300001000100010001000100010001000100B1
:1007400001000100010000000100010001000100A2
:100750000100010001000100010001000100010091
:100760000100010000000100010001000100010082
:100770000100010001000100010001000100000072
:100780000000010001000100010001000100010062
:100790000100010001000100010001000100010051
:1007A0000000010001000100000000000100000045
:1007B0000100010001000100010001000100010031
:1007C0000100010001000100010001000100010021
:1007D0000100010001000100010001000000010012
:1007E0000100010001000100010001000100010001
:1007F00001000100010001000100000001000100F2
:1008000001000100010001000100010001000100E0
:1008100001000100000000000100010001000100D2
:1008200001000100010001000100010001000100C0
:1008300001000100010000000100010001000000B2
:1008400000000100000001000100010001000100A2
:100850000100010001000100010001000100010090
:100860000100010001000100010001000100010080
:100870000100000001000100010001000100010071
:100880000100010001000100010001000100010060
:100890000000010001000100010001000100010051
:1008A0000100010001000100010000000000010042
:1008B0000100010001000100010001000100010030
:1008C0000100010001000100010001000000010021
:1008D0000100010000000000010000000100010013
:1008E0000100010001000100010001000100010000
:1008F00001000100010001000100010001000100F0
:1009000001000100010001000000010001000100E0
:1009100001000100010001000100010001000100CF
:1009200001000100010000000100010001000100C0
:1009300001000100010001000100010001000100AF
:1009400000000000010001000100010001000100A1
:10095000010001000100010001000100010001008F
:100960000100000001000100010000000000010082
:100970000000010001000100010001000100010070
:10098000010001000100010001000100010001005F
:100990000100010001000100010001000100000050
:1009A000010001000100010001000100010001003F
:1009B0000100010001000100010001000000010030
:1009C000010001000100010001000100010001001F
:1009D0000100010001000000000001000100010011
:1009E00001000100010001000100010001000100FF
:1009F00001000100010001000000010001000100F0
:100A000000000000010000000100010001000100E1
:100A100001000100010001000100010001000100CE
:100A200001000100010001000100010001000100BE
:100A300001000100000001000100010001000100AF
:100A4000010001000100010001000100010001009E
:100A5000010000000100010001000100010001008F
:100A60000100010001000100010001000000000080
:100A7000010001000100010001000100010001006E
:100A8000010001000100010001000100010000005F
:100A90000100010001000000000001000000010051
:100AA0000100010001000100010000047F3F1F64FC
:100AB0003214643214783C1E1E140A0522232526A3
:100AC00028292A2C2D2F3032333536383A3B3D3EFB
:100AD0004042434547494A4C4E5051535557595A45
:100AE0005C5E6062646668696B6D6F71737577795F
:100AF0007B7D7F81838587898A8C8E90929496985E
:100B00009A9C9E9FA1A3A5A7A8AAACAEAFB1B3B46F
:100B1000B6B8B9BBBCBEBFC1C2C3C5C6C7C9CACBC4
:100B2000CCCDCED0D1D2D2D3D4D5D6D7D7D8D9D98F
:100B3000DADADBDBDBDCDCDCDCDCDDDDDDDDDCDCF8
:100B4000DCDCDCDBDBDBDADAD9D9D8D7D7D6D5D415
:100B5000D3D2D2D1D0CECDCCCBCAC9C7C6C5C3C2E1
:100B6000C1BFBEBCBBB9B8B6B4B3B1AFAEACAAA836
:100B7000A7A5A3A19F9E9C9A98969492908E8C8AEA
:100B800089878583817F7D7B79777573716F6D6BC5
:100B90006968666462605E5C5A5957555351504E9D
:100BA0004C4A4947454342403E3D3B3A383635334F
:100BB00032302F2D2C2A292826252322FFAA7F55C3
:100BC00040000000000000000000000101010101E0
:100BD00001010101020202020202020203030303F5
:100BE00003030304040404040505050505060606BD
:100BF000060607070707080808080909090A0A0A74
:100C00000B0B0B0C0C0C0D0D0D0E0E0E0F0F101010
:100C10001011111212131314141515161617171894
:100C20001819191A1A1B1C1C1D1D1E1F1F202121FB
:100C300022232324252526272828292A2B2C2C2D3E
:100C40002E2F30313132333435363738393A3B3C58
:100C50003D3E3F404142434445464748494B4C4D49
:100C60004E4F50525354555758595A5C5D5E60610F
:100C700063646567686A6B6C6E6F7172747677799E
:100C80007A7C7D7F8182848687898B8D8E909294F9
:100C90009597999B9D9FA1A2A4A6A8AAACAEB0B21D
:100CA000B4B6B9BBBDBFC1C3C5C8CACCCED0D3D5FD
:100CB000D7DADCDEE1E3E6E8EAEDEFF2F4F7F9FC9F
:100CC000FF0403300000000E036D0069006E006930
:100CD000006C00610000000E0364007A007400657F
:100CE000006300680000000403090409023B0002DD
:100CF0000100A0FA0904000001030101000921110B
:100D00000100012240000705810308000A090401CF
:100D100000010300000009211101000122710007F8
:100D200005820320000A1201100100000008EDFEF8
:100D3000606001000102030105010980A101850332
:100D40001601002603001A81002A83007510950100
:100D50008100C0050C0901A1018504160100269C33
:100D6000021A01002A9C02751095018100C005013C
:100D70000906A1018505050719E029E715002501E8
:100D80009508750181020508190129059505750168
:100D900091029501750391010507190029EF1500CE
:100DA000250195F075018102C005010906A1010523
:100DB0000719E029E71500250195087501810295BD
:100DC000017508810105081901290595057501912D
:100DD000029501750391010507190029FF150026E9
:100DE000FF00950675088100C00011241FBECFEFDB
:100DF000DAE0DEBFCDBF04B603FE27C080919702C4
:100E000090919802A0919902B0919A028730904BEC
:100E1000A740B04BD1F41092970210929802109212
:100E2000990210929A0214BE84B7877F84BF0FB6CE
:100E3000F894A8958091600088618093600010927A
:100E400060000FBEE0E0F8E3099511E0A0E0B1E03A
:100E5000ECE4F3E502C005900D92A635B107D9F791
:100E600022E0A6E5B1E001C01D92A739B207E1F783
:100E70000E94B7230C94A4290C9400000C944507FD
:100E80000C94460780E090E008950895089581FF4E
:100E900002C0209A01C020982898089581E0089502
:100EA00081E008950C9450071F93CF93DF9300D0F7
:100EB00000D01F92CDB7DEB749835A8320919001AD
:100EC00089819A81211112C0662349F00E94AC1ECB
:100ED000182F682F89819A810E94511E03C00E9499
:100EE000801E182F69817A81812F04C00E94AC1E58
:100EF00069817A810F900F900F900F900F90DF9182
:100F0000CF911F910C94B609FC01408151816281FF
:100F1000738184810C9454070E94DC1F811102C0EC
:100F20000E9456200C943E070C9440070C944707EF
:100F30000C94960708950E9477190E949A072FEF44
:100F400084E39CE0215080409040E1F700C0000025
:100F50000C94E2210F931F93CF93DF938C010E9497
:100F60008407EC01B8010E945207882309F4F7C1F5
:100F7000B801CE010E94D513882309F4F0C1CA3C00
:100F8000FCE5DF0741F4F8018281882309F4E7C119
:100F90000E941310E4C1CB3C8CE5D80708F012C1C5
:100FA000C33C9CE5D90761F4F8018281882309F4E8
:100FB000D6C10E942C1F8272E1F00E943E12CFC166
:100FC000C43CECE5DE07C0F0C63C9CE5D90709F45B
:100FD000CAC008F0DCC0C43CFCE5DF0709F0CBC0A8
:100FE000F8018281882309F4BAC10E942C1F827201
:100FF00021F30E943112B3C1C531FCE5DF0708F0CF
:101000007BC0C2308CE5D80708F452C0F801828159
:10101000882309F454C00E94DC1F811102C00E9481
:1010200056200E94EF1F90E09093890280938802DF
:10103000FE01E350FC45E231F10530F4EA5AFF4F7E
:10104000809188020C94492980918802816027C090
:10105000826025C0846023C0806121C080621FC07F
:1010600080641DC080681BC08460886018C08E7F4B
:1010700016C08D7F14C08B7F12C08F7E10C08F7DF5
:101080000EC08F7B0CC08F770AC08B7F877F07C015
:1010900087FB222720F991E0922790FB87F9809324
:1010A0008802809188020E94F31F0E94771957C11D
:1010B000C1159CE5D90751F0C130DC4579F0C80174
:1010C000DF91CF911F910F910C944E07F80182810F
:1010D000882309F444C10E949B0741C1F801828121
:1010E000882309F43CC180912802982F909590FBA9
:1010F00080F98093280233C1C631FCE5DF0739F55A
:101100000E942C1F282FF8018281409110015091DC
:101110001101882379F02A7A91E009F490E0909304
:101120005601911102C069E201C065E3CA010E9443
:10113000BD200AC080915601811102C069E201C040
:1011400065E3CA010E94C8200E94781F08C1C23C02
:10115000DC4509F0B4CFF8018281882309F4FFC08F
:101160000E944C12FCC0F8018281882309F4F7C068
:101170000E94D70FF4C0C53CDC4509F0A0CFF801B0
:101180008281882309F4EBC00E94CA0FE8C0F801ED
:101190008281C83CFCE5DF0731F4882309F4DFC015
:1011A0000E94F50FDCC0C93CDC4530F4882309F40B
:1011B000D6C00E94E60FD3C0882309F4D0C00E9495
:1011C0000410CDC0C13DECE5DE0791F4F801828149
:1011D000882309F4C4C00E94450E8F3028F00E9475
:1011E000450E843108F405CF8FE00E944112B7C04C
:1011F000C23DFCE5DF0708F05AC0CD3C8CE5D807BE
:1012000039F4F8018281882309F4A9C081E0EDCF87
:10121000CE3C9CE5D907C0F4CB3CECE5DE0741F4BD
:10122000F8018281882309F49AC00E944D0E97C06C
:10123000CC3CDC4509F043CFF8018281882309F4D6
:101240008EC00E945E0E8BC0F8018281CF3CFCE50F
:10125000DF0771F4882309F482C00E94450E8630AE
:1012600028F00E94450E883008F4C3CE86E0BDCF3A
:10127000C03DDC4570F4882309F471C00E94450E1E
:10128000823028F00E94450E853008F4B2CE82E00C
:10129000ACCF882309F463C00E94450E893028F042
:1012A0000E94450E8E3008F4A4CE89E09ECFC53D45
:1012B000ECE5DE0739F4F8018281882309F44FC098
:1012C00083E293CFC63DFCE5DF0740F5F80182815C
:1012D000C33DFCE5DF0729F4882309F440C088E119
:1012E00084CFC43DDC4568F48823C9F10E94450ED3
:1012F000853128F00E94450E873108F47ACE85E1C9
:1013000074CF882361F10E94450E893128F00E9434
:10131000450E823208F46DCE89E167CFCD3DECE514
:10132000DE0741F4F80182818823C9F082E00E943F
:10133000582415C0CE3DFCE5DF0739F4F801828161
:10134000882369F00E9456200AC0CC3DDC4509F094
:10135000B6CEF8018281882311F080E0E8CF80E0EA
:10136000DF91CF911F910F91089508959FE0799F8C
:10137000F00111249BE4899FE00DF11D1124E60F7B
:10138000F11DEE0FFF1FE65BFE4F859194910895CE
:10139000880F991FFC01E655F54F859194910895AA
:1013A000CF93DF930E94B6090E94870BEC01811551
:1013B00020E59207F0F5811530E4930708F024C189
:1013C000883E910500F5803E910508F09CC1883A61
:1013D000910570F4853A910508F09FC08130910520
:1013E00009F491C108F442C1049708F08CC13EC1D0
:1013F0008F3B910508F49CC0803C910508F436C1F0
:10140000805C9109F4C0811540E2940758F4C1153D
:1014100081E0D80708F077C1C03FD10508F426C1A4
:10142000D06571C1811520E3920708F0E4C09F7078
:10143000DEC0811535E5930708F044C0811544E509
:10144000940708F0F8C0C11582E5D80708F5C11562
:1014500021E5D20708F0DBC08C2F837021E030E05B
:1014600002C0220F331F8A95E2F73C68CE0174E078
:10147000969587957A95E1F78370382BCF70C6954E
:10148000C69580E2C89FE0011124C22BD32B3BC13B
:101490002C2F26952695CE0183709927C115D3450B
:1014A00008F0BAC040E2249F90011124C1E0D0E0CE
:1014B00002C0CC0FDD1F8A95E2F72C2B3D2BE901F2
:1014C000DC6821C1811549E59407A0F4C11588E5C0
:1014D000D80708F0B5C0C11526E5D20708F0C6C088
:1014E0008C2F0E94040C8F71C82FD0E0DC2FCC27EA
:1014F000D06209C181153AE5930708F4A6C0905659
:101500008115904208F0B2C08D2F8F710E94040C9B
:10151000DD27D0628F71D82BF6C0853A910509F48A
:10152000A8C0863A910509F0A7C0C2E8D0E4EBC094
:10153000883A910509F4A3C0893A910509F4A2C03B
:101540008A3A910509F4A1C08B3A910509F4A0C02B
:101550008C3A910509F49FC08B3B910509F49EC01C
:101560008C3B910509F49DC08D3A910509F49CC00E
:10157000803B910509F49BC08E3A910509F49AC00D
:101580008F3A910509F499C0813B910509F498C0FF
:10159000823B910509F497C0833B910509F496C0FD
:1015A000843B910509F495C0853B910509F494C0ED
:1015B000863B910509F493C0873B910509F492C0DD
:1015C000883B910509F491C0893B910509F490C0CD
:1015D0008D3B910509F48FC08E3B910509F48EC0B7
:1015E0008A3B910509F48DC0C0E0D4E48CC00E9410
:1015F000C809EC0188C09927D3FF03C0EC01D86C5F
:1016000082C0EC01D06C7FC0DF70D06A7CC0DC2F60
:10161000CC27C16FD06A77C040E2249F900111248B
:10162000C1E0D0E002C0CC0FDD1F8A95E2F7C22BEB
:10163000D32BDA6868C0D82FCC27C46FD06A63C0B8
:10164000DC2FCC27C06FD06A5EC08F700E94040C64
:1016500094E0D695C7959A95E1F7CF70D0E0DC2F4E
:10166000CC27D06A8F70806EC82B4DC0C0E0D0E010
:101670004AC0C1E8D0E447C0C3E8D0E444C0C2EEE9
:10168000D4E441C0C9EED4E43EC0CAEED4E43BC0C9
:10169000C5EBD4E438C0C6EBD4E435C0C3EBD4E426
:1016A00032C0C4EBD4E42FC0C7EBD4E42CC0CCECE4
:1016B000D4E429C0CDECD4E426C0C3E8D5E423C0EB
:1016C000CAE8D5E420C0C2E9D5E41DC0C4E9D5E428
:1016D0001AC0C1E2D6E417C0C3E2D6E414C0C4E223
:1016E000D6E411C0C5E2D6E40EC0C6E2D6E40BC013
:1016F000C7E2D6E408C0CFE6D4E405C0C0E7D4E42E
:1017000002C0CAE2D6E4CE01DF91CF9108958238BB
:10171000910549F1B0F48133910509F458C048F4BA
:101720008932910509F44EC08A32910509F454C0FA
:1017300008958533910509F440C08933910599F0E6
:101740000895833E910529F138F4803E910591F08A
:10175000823E9105A1F00895863E9105F9F0873EFD
:10176000910531F108952091880220FD3AC021FDB4
:1017700038C008958091880280FD35C032C08091C4
:10178000880282FF32C08091880284FD30C083EEDF
:1017900039C08091880282FD28C0F5CF80918802EF
:1017A00083FF27C08091880284FD21C087EE2AC074
:1017B0008091880283FD1DC0F5CF8091880285FD50
:1017C0001AC01BC08091880285FD17C014C080918B
:1017D000880286FD14C015C08091880286FD11C064
:1017E0000EC080EE0FC089E30DC082EE0BC080E01A
:1017F00009C086EE07C089E205C085E303C08AE21E
:1018000001C081E390E008959091880292FF0DC09D
:10181000282F2871283019F4877F846006C0282F6C
:101820002471243011F48B7F886093FF0DC0282F22
:101830002871283119F4877E846106C0282F24710D
:10184000243111F48B7E886194FD877E0895E82F02
:10185000F0E0EE0FFF1FE95AFE4F8081918108955D
:101860000895ACE2B1E041E050E025E02A0F8D910F
:10187000E82FE295EF70F0E031A18F70BA0102C05D
:10188000660F771F8A95E2F7CB01962F90959323E9
:1018900091A392A1892B82A32A13E9CFADE1B1E0F4
:1018A00041E050E02FE02A0F8D91E82FE295EF7094
:1018B000F0E031A18F70BA0102C0660F771F8A95E0
:1018C000E2F7CB01962F9095932391A392A1892BB8
:1018D00082A32A13E9CFE1E6F1E0A7E5B1E0119296
:1018E00011921D921D9271E0EB36F707C1F785E06A
:1018F0000E94130D0C948C075F926F927F928F92CF
:101900009F92AF92BF92CF92DF92EF92FF920F938E
:101910001F93CF93DF930CE211E0A1E6B1E0612CBD
:10192000EE24E394F12C5D018D909C90119711961B
:101930001C921E92E80189918E01E82FE295EF70CA
:10194000F0E091A18F70A70101C0440F8A95EAF7DA
:10195000892F842B81A382A1542E5094852182A3A8
:10196000D0EADA95F1F78DE1C82E81E0D82E80E03B
:1019700090E0E60179906E01272D22952F7030E0DE
:10198000E90168A12D913C91119770E0D72DDF708E
:1019900002C075956795DA95E2F760FD08C0B7015A
:1019A000082E02C0660F771F0A94E2F702C060E0BB
:1019B00070E0262B372B11963C932E9301968F3097
:1019C0009105B9F681A1D52DD823D1A382A1482BA9
:1019D00042A3129681E0F50120813181821693069F
:1019E00009F480E0682AF1E0AB36BF0709F09BCF2D
:1019F000262D45E067E571E081E691E00E94140D37
:101A00000E949407862DDF91CF911F910F91FF9037
:101A1000EF90DF90CF90BF90AF909F908F907F908E
:101A20006F905F9008950895FF920F931F93CF9347
:101A3000DF93F82E092F162FD72FC42F222349F01A
:101A400081E080936D010E94862190936C018093C8
:101A50006B0180916D018823D9F080916B01909189
:101A60006C010E949221069798F0EF2DF02FA12F84
:101A7000BD2F80E090E04C2F50E08417950734F4A0
:101A8000219131912D933D930196F7CF10926D01E5
:101A9000DF91CF911F910F91FF900895CF92DF9228
:101AA000EF92FF920F931F93CF93DF937B01282F29
:101AB000382FE82FF0E0F11006C0EF53F44F649197
:101AC000762F862F7BC00F2D10E046E0649FC0016B
:101AD0001124CFEFD0E0BE010E942129AB016BEAB7
:101AE0006403C001659F900D11248E0D911D8E0D14
:101AF000911D982F990F890FBE01601B710B6E9F6E
:101B0000D0016F9FB00D7E9FB00D11249B2F8F9D34
:101B1000B0011124672F77277E01E61AF70AEE9E9F
:101B2000B001EF9E700DFE9E700D11246E01C81A5B
:101B3000D108C09E7001C19EF00CD09EF00C112403
:101B40000F2D1127C01BD10BCE9F8001CF9F100DF1
:101B5000DE9F100D1124812F4230510591F04CF47D
:101B600041155105E1F041305105B9F4822F272F7D
:101B700016C04430510569F044F04630510579F003
:101B80000CC0822F2B2F912F0AC02B2F932F872F22
:101B900006C08B2F922F212F02C08B2F972FE22F61
:101BA000F0E0EF53F44F7491E82FF0E0EF53F44F6F
:101BB0006491E92FF0E0EF53F44F8491DF91CF91DE
:101BC0001F910F91FF90EF90DF90CF9008950895AF
:101BD000CF93DF93762FE901682F842F0E944E0D5B
:101BE000798368838A83DF91CF910895493C08F017
:101BF00048EC0C94E80D80914F02282F269530E098
:101C00002115310519F48170826005C02532310536
:101C100024F08170886480934F0280915202893C45
:101C200018F088EC80935202089588E090E00C94BC
:101C30006429CF93DF9300D000D0CDB7DEB7AB01DE
:101C4000BC0149835A836B837C830E94FB0D4981CD
:101C50005A816B817C8188E090E00F900F900F900B
:101C60000F90DF91CF910C948229EFE4F2E083E0B2
:101C7000808311828FEF828388EC8383148260815A
:101C80007181828193810C94190E80914F0280FFA3
:101C900002C08695089580E00895809153028330B4
:101CA00018F48F5F8093530260914F02709150023D
:101CB00080915102909152020C94190E809153021E
:101CC000882319F081508093530260914F027091E4
:101CD000500280915102909152020C94190E609121
:101CE000040170E080914F0280FF0AC08091720170
:101CF00023E0829FC00111248C5A9D4F0C946513E0
:101D00008091710190910301891780F7E82FF0E02D
:101D10009F01220F331FE20FF31FEC5AFD4F118278
:101D2000108212828F5FF0CF90914F0290FF16C009
:101D30009091710120910301921770F4E92FF0E066
:101D4000DF01AA0FBB1FEA0FFB1FEC5AFD4F818377
:101D5000608342839F5FF0CF0C946F0E0895CF9302
:101D6000DF9300D01F92CDB7DEB790914F0290FF66
:101D70000AC09E012F5F3F4F0E94F60D4B81698183
:101D80008A810E94940E0F900F900F90DF91CF9157
:101D90000895CF93DF93EC01EC81F0E0E454F54F2C
:101DA0004491EFE4F2E0628181810E94AF0E8C8168
:101DB0008F5F8C83DF91CF910895CF93DF93EC01F8
:101DC000EFE4F2E0438162818C810E94AF0E8C814E
:101DD0008F5F8C83DF91CF9108950F931F93CF93E3
:101DE000DF9300D01F92CDB7DEB78C0180916E01DA
:101DF00081110AC09E012F5F3F4F48EC6FEF0E9498
:101E0000F60D8A8180936E01F8018481813051F052
:101E100028F0823061F440916E010AC080916E0119
:101E200040E007C060916E0140E080E003C040E008
:101E300080E060E00E94940EF801248130E0C90146
:101E4000019663E070E00E94352984830F900F9023
:101E50000F90DF91CF911F910F910895AF92BF9294
:101E6000CF92DF92EF92FF920F931F93CF93DF9366
:101E700000D01F92CDB7DEB7182FF62E042FE22E1A
:101E800090914F0290FF6EC0E92FE695AE2FB0E023
:101E9000AF5CBE4F8C9180937A019E7F923061F44B
:101EA0009E012F5F3F4F812F0E94F60D4B8169816C
:101EB0008A810E94940E44C0823019F4009152022B
:101EC0003FC0863019F4109150023AC08930D9F3DE
:101ED0008931B1F5E9518E2F8170D82EE695F0E069
:101EE000E454F44FA590B490C12CBB24609102013E
:101EF000C61620F5EC2DF0E0EA9DC001EB9D900D9B
:101F0000FA9D900D112470E00E942129812FD1109B
:101F100002C0860F01C0861B90917101E90FF11D6F
:101F20009F01220F331FE20FF31F9F012C5A3D4FD9
:101F3000402F6F2D0E94F60DC394D8CF0E946F0ED4
:101F400010935002F092510200935202EE2051F091
:101F500060914F0270915002809151029091520213
:101F60000E94190E0F900F900F90DF91CF911F914B
:101F70000F91FF90EF90DF90CF90BF90AF900895BA
:101F8000EFE4F2E09181282F4381628188E0890F9C
:101F90000C942E0F81E00C94C00FEFE4F2E09181DD
:101FA000282F4381628188EF890F0C942E0F81E0E6
:101FB0000C94CD0FEFE4F2E0628128E0620F08F4A8
:101FC0006FEF282F438181810C942E0F81E00C94B8
:101FD000DA0FEFE4F2E0628128E0621B08F460E0CF
:101FE000282F438181810C942E0F81E00C94E90FFE
:101FF000EFE4F2E0438128E0420F08F44FEF282F8E
:10200000628181810C942E0F81E00C94F80FEFE433
:10201000F2E0438128E0421B08F440E0282F62816F
:1020200081810C942E0F81E00C94071020E00C9419
:102030002E0FFF920F931F93CF93DF93EC01F12CA0
:102040000FEF10E060910201F616E8F420917101A3
:1020500030E02F0D311DC901880F991F280F391F3E
:102060002C5A3D4F70E0C8010E943529962F8C8173
:102070004091520260915102F99E800D11240E94FC
:10208000F60DF394DFCF0E946F0E9A818C8190FF42
:1020900002C08F5F01C081508C83DF91CF911F916F
:1020A0000F91FF900895BF92CF92DF92EF92FF922F
:1020B0000F931F93CF93DF93FC01828180FF02C0B7
:1020C0000FEF01C001E010E0809102011817E0F568
:1020D000C12ED12C80917101E601C80FD11DCE0116
:1020E000880F991FC80FD91FCC5ADD4F198218824B
:1020F0001A8234E0E32EF12CB12C809170018B0D0B
:1021000087FF03C090910201890F082E000C990BE4
:10211000C816D90691F4809152028E9DA0018F9D20
:10212000500D112455954795559547959E01609101
:102130005102809150020E94F60DB00EF1E0EF1AAC
:10214000F108D9F61F5FC0CF0E946F0E8091700119
:10215000013031F4811102C080910201815007C029
:1021600090E001966091020170E00E943529809311
:102170007001DF91CF911F910F91FF90EF90DF9051
:10218000CF90BF900895CF938091710190910301FA
:10219000891770F4E82FF0E09F01220F331FE20F40
:1021A000F31FEC5AFD4F1182108212828F5FF0CF25
:1021B000C0E060910201C617B8F5EC2FF0E070E0C6
:1021C000CF010E94352940917101480F80916F0124
:1021D000082E000C990B50E0E817F907C4F0209185
:1021E0000101022E000C330B2E173F0784F09A01D9
:1021F000220F331F240F351F2C5A3D4F409152029E
:1022000060915102809150020E94F60D0BC0FA01BC
:10221000EE0FFF1F4E0F5F1FFA01EC5AFD4F1182A8
:1022200010821282CF5FC5CF0E946F0E20910001F5
:1022300080916F01820F80936F0190910101920F45
:102240009093010119165CF4082E000C990B409133
:10225000020150E041505109841795071CF0219567
:1022600020930001CF9108950F931F93CF93DF9395
:102270008C01FC0184819581019681709927958359
:102280008483C0E0D5E580910201C817F8F420915D
:10229000710130E02C0F311DC901880F991F280FE3
:1022A000391F2C5A3D4F4C2F4695F801848195815A
:1022B000840F911D817040915202609151028D9F57
:1022C000802D11240E94F60DCF5FDDCFDF91CF91DD
:1022D0001F910F910C946F0E0F931F93CF93DF9369
:1022E000EC0100E010E080910201282F30E002179D
:1022F000130724F5909171019801290F311DA9014F
:10230000440F551F240F351F2C5A3D4F869590E0E2
:102310004C81081719071CF4442331F002C0411105
:1023200003C04091520201C040E06091510280918F
:1023300050020E94F60D0F5F1F4FD5CF0E946F0E07
:102340002C8130E02F5F3F4F217033272C83DF91AA
:10235000CF911F910F910895EFE4F2E080818E7F7D
:10236000808360817181828193810E94190E109215
:102370007B012FEF80E792E0215080409040E1F711
:1023800000C000000C946F0EEFE4F2E080818E7FBD
:10239000808310927B012FEF80E792E021508040F4
:1023A0009040E1F700C000000C946F0E60914F0266
:1023B000669570E04BE050E085E091E00E944F2987
:1023C000892B19F481E080937B010E9486219093F0
:1023D000740180937301089590914F0290FF35C06E
:1023E0009170811102C0926006C0853210F098642D
:1023F00002C0880F982B90934F02662351F0609192
:102400004F027091500280915102909152020E94AD
:10241000190E60914F02669570E04BE050E085E048
:1024200091E00E944F29892B19F010927B0102C084
:102430000E94D61181E08093760140915202609112
:102440005102809150020C9416100895682F9091BB
:102450004F02969581E0890F853208F081E00C9457
:10246000EC1181E00C942612682F90914F02969502
:102470008FEF890F09F484E20C94EC1181E00C9445
:10248000341261E00C94EC11EFE4F2E080818160A1
:10249000808386950C94411280914F0280FD0C94AC
:1024A000AC110C94441260E00C94EC118091790111
:1024B000811133C0809128028160809328020E949C
:1024C000DC1F811104C00E9456200E94350E0E941C
:1024D000150E60934F0270935002809351029093B7
:1024E00052026E7F61F40E94350E0E94150E6093B9
:1024F0004F027093500280935102909352020E94B7
:10250000FB0D10927B0180914F0280FF03C08695E6
:102510000E94531281E0809379010895EFE4F2E084
:1025200080818160808386950C94531210927B0188
:1025300008950F931F93CF93DF9380917B0188239E
:1025400009F48CC080917A01E0914F02E695E81B76
:10255000E0937501823049F4F0E0E854F54FE491DE
:10256000CE2FD0E009EC1EE049C0863049F4F0E0FF
:10257000EB54F54FE491CE2FD0E00DED1EE03EC0C0
:10258000893051F4E695F0E0EE54F54FE491CE2F0A
:10259000D0E009E110E132C08F3051F4E695F0E06F
:1025A000E155F54FE491CE2FD0E003E510E126C0D0
:1025B000853149F4F0E0E455F54FE491CE2FD0E0B9
:1025C00003EC10E11BC0883181F0833239F4EAEA70
:1025D000FAE0C591D4910DEE1EE010C0843251F4A2
:1025E000C4EFD1E00CE611E109C0C8EED3E004E38A
:1025F00011E104C0C0EDD7E007EE1DE08091760147
:10260000882389F0109276010E9486219E012095F0
:102610003095820F931F90937401809373011092F1
:1026200078011092770180917301909174010E945A
:1026300092218C179D0790F0E0917301F091740145
:10264000CE0FDF1FD0937401C093730183E791E035
:10265000F801DF91CF911F910F910994DF91CF91F4
:102660001F910F91089521B3342F3095232331B357
:10267000432B3FB7F894FC01680F791FE617F70763
:1026800089F0819198E041BB000000C087FF21BB29
:10269000880F000000C000C000C021BB00C09A9598
:1026A00091F7ECCF3FBF089520B3242B20BB9B01B3
:1026B000220F331F620F731F0E94331387EC90E0C9
:1026C0000197F1F700C00000089540E40C94541302
:1026D0000F931F93CF93DF93C62FD42F022FFC01AC
:1026E00082818823C9F060937E010E9486219093A5
:1026F0007D0180937C0180E28C0F883008F050C00F
:10270000C77081E001C0880FCA95EAF7DF91CF91C9
:102710001F910F910C94061710917E01161330C073
:1027200080917C0190917D010E949221883C9105CD
:1027300038F5C0E2CD0F1D17B9F080E2810F883067
:1027400040F4177081E001C0880F1A95EAF70E94E3
:102750000D17C83048F481E09D2F977001C0880F95
:102760009A95EAF70E940617802F0E94F316C83048
:10277000B8F4D77081E001C0880FDA95EAF70AC093
:1027800080E28C0F883060F4C77081E001C0880F50
:10279000CA95EAF7DF91CF911F910F910C940D1715
:1027A000DF91CF911F910F9108959C01CB01203FA4
:1027B0004CE53407F9F078F4283DFCE53F07B9F023
:1027C000293D4CE5340711F1273D3C4531F526E222
:1027D00041EE61EE1EC0223FFCE53F0799F070F02C
:1027E000233F3C45D1F427E245EE66EE12C027E2D6
:1027F00045EE0EC026E241EE60EE0BC027E245EE4C
:1028000064EE07C026E241EE62EE03C028E241E03A
:1028100065EE0E94681380E00895FC0182818823A0
:1028200019F010927E01089581E00895909384013B
:10283000809383010895E0918301F09184013097A2
:1028400021F00190F081E02D099480E00895E0915D
:102850008301F0918401309799F020911C0122238B
:1028600059F02091880227FF07C0DC012C911196B6
:102870002C93119725E02C930280F381E02D09948D
:10288000089520918101309182018217930771F0A0
:102890009093820180938101E0918301F091840102
:1028A000309721F00680F781E02D0994089520915A
:1028B0007F01309180018217930771F0909380011E
:1028C00080937F01E0918301F0918401309721F0A2
:1028D0000084F185E02D0994089585B7806885BF4F
:1028E00085B7806885BF0895089508950C94751480
:1028F00008950C9478140E946D140E9474140C9422
:10290000761481E008950E947D210E94310C0E947E
:1029100006220E9456120C9479144F925F927F9275
:102920008F929F92AF92BF92CF92DF92EF92FF92DF
:102930000F931F93CF93DF93CDB7DEB72A970FB6D0
:10294000F894DEBF0FBECDBF0E947C0C0E948114A4
:10295000811111C08FEF89838A831B820E94862197
:102960008160782F9D838C8349815A816B818D8111
:102970000E94491557C096E8C92E91E0D92E00E073
:1029800010E0AA24A394B12C702E802F0E94270C53
:102990004C01F601419051906F014826592641148F
:1029A000510431F40F5F1F4F0530110569F7D2CF85
:1029B0008091280281FD0E94300C20E030E07501FA
:1029C000022E02C0EE0CFF1C0A94E2F7C70184211C
:1029D0009521892B09F12E837F828E209F2091E003
:1029E000892809F490E098870E9486218160782FD9
:1029F0009A8789874E815F8168858A850E944915FB
:102A0000000F111FF801EA57FE4F80819181E826DF
:102A1000F926F182E08206C02F5F3F4F2F3031054B
:102A200071F6C0CF109185010E941B141817D9F0C0
:102A30000E941B14809385012A960FB6F894DEBF7E
:102A40000FBECDBFDF91CF911F910F91FF90EF90FF
:102A5000DF90CF90BF90AF909F908F907F905F90CE
:102A60004F900C9498072A960FB6F894DEBF0FBECD
:102A7000CDBFDF91CF911F910F91FF90EF90DF902D
:102A8000CF90BF90AF909F908F907F905F904F902E
:102A90000895CF93DF93CDB7DEB72B970FB6F89499
:102AA000DEBF0FBECDBF4F83588769877A878B877C
:102AB000DE01119686E0FD0111928A95E9F785E025
:102AC000FE01379601900D928A95E1F749815A816E
:102AD0006B817C818D819E810E94211C2B960FB67B
:102AE000F894DEBF0FBECDBFDF91CF910895FC01FA
:102AF000808191810E94ED1E0895882309F413C1FD
:102B0000682F8238C1F40E941B1481FD0CC169E357
:102B100080911001909111010E94BD200E94781FA8
:102B20002FEF81EE94E0215080409040E1F700C00B
:102B3000000069E319C08338F9F40E941B1480FD7A
:102B4000F2C063E580911001909111010E94BD20B7
:102B50000E94781F2FEF81EE94E02150804090403A
:102B6000E1F700C0000063E5809110019091110130
:102B70000E94C8200C94781F8438C1F40E941B1452
:102B800082FDD1C067E480911001909111010E94F3
:102B9000BD200E94781F2FEF81EE94E021508040ED
:102BA0009040E1F700C0000067E4DECF8CEF860FB5
:102BB000813A38F480911001909111010E94BD205A
:102BC000D9CF80E2860F883048F4677081E001C079
:102BD000880F6A95EAF70E942F1FCCCF8BE5860FEE
:102BE000833070F4653A29F0663A31F083E890E07A
:102BF00005C081E890E002C082E890E00C944114A6
:102C000088E5860F873108F08EC0683A09F445C020
:102C1000693A09F445C06A3A09F445C06B3A09F4C7
:102C200045C06C3A09F445C06B3B09F445C06C3BA8
:102C300009F445C06D3A09F445C0603B09F445C04C
:102C40006E3A09F445C06F3A09F445C0613B09F496
:102C500045C0623B09F445C0633B09F445C0643B91
:102C600009F445C0653B09F445C0663B09F445C01D
:102C7000673B09F445C0683B09F445C0693B09F46A
:102C800045C06D3B09F445C06E3B09F445C06A3B45
:102C900009F445C080E090E044C082EE90E041C07D
:102CA00089EE90E03EC08AEE90E03BC085EB90E07C
:102CB00038C086EB90E035C083EB90E032C084EB07
:102CC00090E02FC087EB90E02CC08CEC90E029C006
:102CD0008DEC90E026C083E891E023C08AE891E083
:102CE00020C082E991E01DC084E991E01AC081E230
:102CF00092E017C083E292E014C084E292E011C037
:102D000085E292E00EC086E292E00BC087E292E09C
:102D100008C08FE690E005C080E790E002C08AE23C
:102D200092E00C9457140895882309F45BC0682F2F
:102D3000823879F40E941B1481FF54C069E38091AA
:102D40001001909111010E94BD200E94781F69E33B
:102D500010C08338B1F40E941B1480FF43C063E5A8
:102D600080911001909111010E94BD200E94781F56
:102D700063E580911001909111010E94C8200C948C
:102D8000781F843879F40E941B1482FF2BC067E4FB
:102D900080911001909111010E94BD200E94781F26
:102DA00067E4E7CF8CEF860F813A18F380E2860F55
:102DB000883048F4677081E001C0880F6A95EAF7AF
:102DC0000E94351FDCCF8BE5860F833020F480E036
:102DD00090E00C944114685A673120F480E090E050
:102DE0000C9457140895CF93C82F0E947D15C933B2
:102DF00049F42FEF83EC99E0215080409040E1F7B7
:102E000000C000008C2FCF910C949416882321F0E1
:102E10000E942F1F0C94781F0895882321F00E9490
:102E2000351F0C94781F08954F925F926F927F9296
:102E3000BF92CF92DF92EF92FF920F931F93CF93A7
:102E4000DF937C01062FC72FFC01158112951F709F
:102E5000D281D1110E944C1F0E94251F882379F036
:102E6000DD2369F080E2800F883048F082E00E9424
:102E7000C31F0E94251F91E0B82EB92601C0B12CB6
:102E8000CC2EC2948FE0C822D12CF601E859FF4F16
:102E90000C9449298C2F807FCF70882311F0C29524
:102EA000C07FDD2399F0CC2309F481C180E2800F3B
:102EB000883010F0011104C08C2F0E942F1F03C016
:102EC0008C2F0E943F1F0E94781F71C1802F0E948B
:102ED0009416CC2309F490C180E2800F883010F062
:102EE000011104C08C2F0E94351F03C08C2F0E943B
:102EF000451F0E94781F80C18C2F807FCF70803249
:102F000011F0C295C07F002319F00130C9F022C032
:102F1000DD2371F0112341F0113031F40E945F1F65
:102F20008C2B0E94651F68C10E945F1F8C2BF8C00C
:102F3000112319F0113009F45FC10E946E1F18C0EF
:102F4000DD2321F0163008F057C10EC0153008F00F
:102F500053C10EC0DD2351F0112331F0F7018581FB
:102F600080FF25C18F7085838C2FDAC0111130C18D
:102F70008C2FDCC08C2F86958695837090E000970F
:102F800019F0019761F038C1DD2321F0802F9C2FCB
:102F9000937002C080E090E00E9441143DC1DD23A7
:102FA00021F0802F9C2F937002C080E090E00E945F
:102FB000571432C18C2F837009F04BC0D11128C136
:102FC000202F229526952770220F220F602F6F70D9
:102FD000862F90E0A0E0B0E02C013D01022E04C05D
:102FE000440C551C661C771C0A94D2F704FF10C0D1
:102FF0008FE090E0A0E0B0E004C0880F991FAA1F06
:10300000BB1F2A95D2F780959095A095B09503C0E7
:1030100080E090E0DC01C695C695C370D0E0BC01AD
:10302000CD016429752986299729C230D10559F027
:10303000C330D10559F0219719F00E94661DE8C0F0
:103040000E94541DE5C00E94781DE2C00E94521DDE
:10305000DFC0DD2319F08C2F817001C08695882395
:1030600009F4D6C0202F229526952770220F220F13
:10307000602F6F70862F90E0A0E0B0E02C013D0142
:10308000022E04C0440C551C661C771C0A94D2F70F
:1030900004FF10C08FE090E0A0E0B0E004C0880F13
:1030A000991FAA1FBB1F2A95D2F780959095A095CE
:1030B000B09503C080E090E0DC01C695C695C37072
:1030C000D0E0BC01CD016429752986299729C23039
:1030D000D10559F0C330D10559F0219719F00E945C
:1030E0002C1E96C00E941A1E93C00E943E1E90C0C5
:1030F0000E948D1D8DC0802F90E0FC01E05EF109E3
:10310000E531F10508F04FC0E858FF4F0C9449290C
:103110000F708C2F8F71DD2331F00E94B31D802F33
:103120000E94061769C00E94D41D802F0E940D17AF
:1031300063C0DD2341F0153008F05EC08C2F8F7125
:103140000E94F91D59C0163008F056C0F7CFDD2394
:1031500039F08C2F8F710E94B31D4EC0DD23C9F34F
:103160008C2F8F710E94D41D47C0DD2329F08C2F36
:103170008F710E949E1D40C00E94991D3DC0DD239D
:1031800049F0CF718C2F0E94B31D63E08C2F0E94F9
:10319000AE1F32C081E00E94C31F123068F182E08E
:1031A0000E94C31F29C0DD2331F0112391F2802F2B
:1031B0000E947D1521C0112399F2093349F4FFEFD4
:1031C00023EC89E0F15020408040E1F700C000008E
:1031D000802F0E94941610C04C2F4F70602FC70193
:1031E0000E9442070E94C51C17C04C2F4F70602FD1
:1031F000C7010E94B50910C098E0C916D10441F07A
:103200005CF0FAE0CF1AD10822E0C216D10420F413
:103210000E941B140E949807BB20F1F00E94211FFE
:1032200080FD1AC0F70112820E941B1F0E94B31D6D
:10323000C7010E943A190E941B1FDF91CF911F9175
:103240000F91FF90EF90DF90CF90BF907F906F90A5
:103250005F904F900C94D41DDF91CF911F910F91EF
:10326000FF90EF90DF90CF90BF907F906F905F9036
:103270004F9008950F931F93CF93DF93EC018881B4
:1032800099812B813C81232BB9F09F3F11F48F3F13
:1032900099F0CE010E94AA07882371F06881798194
:1032A0008A810E94F81E8C010E94501E0E94511DAE
:1032B000B801CE010E941417DF91CF911F910F9199
:1032C00008950E944C1F0E945C1F0E94781F80E09E
:1032D00090E00E94411480E090E00C94571480919B
:1032E0001001909111010E94D3200C9461190E9449
:1032F0003C1F0C946F19E92FE295EF70F0E03297C4
:10330000EE30F105B0F4E357FF4F0C944929803FAC
:1033100091F018F4803E68F40EC0843F51F40BC065
:10332000803E48F0813F29F406C093FB882780F94E
:10333000089580E0089581E008950E94ED1E0E94A6
:103340007B190895CF93DF9300D000D01F92CDB7A3
:10335000DEB70F900F900F900F900F90DF91CF91ED
:103360000895CF93DF9300D000D000D0CDB7DEB763
:1033700026960FB6F894DEBF0FBECDBFDF91CF917A
:1033800008951F93CF93DF93C091910116E0809130
:103390009201C81799F0D0E01C9FF0011D9FF00D1D
:1033A0001124ED56FE4F40815181628173818481E9
:1033B00095810E94B1192196C770E9CFDF91CF9115
:1033C0001F9108954091C3015091C4016091C501BE
:1033D0007091C6018091C7019091C8010C94B119F8
:1033E0008091C80182958F7009F054C08091C50109
:1033F000882309F44FC080919101A09192016091BE
:10340000C3017091C4014091C6015091C701B6E05B
:103410008A1709F43FC090E041155105C1F17F3F83
:1034200011F46F3FA1F1B89FF001B99FF00D112485
:10343000ED56FE4F218172132AC02081621327C0EE
:103440002281211124C0238134812417350710F4EF
:1034500021503109241B350B283C3105C0F4209143
:10346000C8012F7020612093C80126E0289FF00139
:10347000299FF00D1124E856FE4F80818F708061E6
:10348000808383EC91E00E943A190C94C119019653
:103490008770BECF0895CF92DF92EF92FF920F9385
:1034A0001F93CF93DF93CDB7DEB762970FB6F89433
:1034B000DEBF0FBECDBF8C0185E0F801DE011D9699
:1034C00001900D928A95E1F7D8014C9111965C918B
:1034D000119712966C9112971396CD90DC901497D9
:1034E0003091C3017091C4018091C6019091C701D0
:1034F000009709F46BC17F3F19F43F3F09F466C19F
:10350000E090C501EE2009F4C0C02091C801C816A2
:10351000D90628F0F601E81BF90BCF0104C080950D
:1035200090958C0D9D1DFF24F394883C910578F0B7
:10353000F12C207F09F0C6C07C2DD98AC88A8989E0
:103540000E94A21983EC91E00E943A19B1C0822F27
:10355000807F09F046C0751314C0341312C0611186
:1035600010C02F7020612093C8010E94E21983ECE3
:1035700091E00E943A198091C801D80115968C9368
:103580002EC0CD2819F15F3F11F44F3FF9F0F62E10
:1035900061111CC0809191012091920136E0821747
:1035A00009F45AC090E0389FF001399FF00D1124C2
:1035B000ED56FE4F7181571306C07081471303C04B
:1035C0007281711103C001968770E9CFF62E6623D0
:1035D00009F427C18091C80181608093C801F12C52
:1035E00020C1751308C0341306C0611104C0809156
:1035F000C801D801C3C04D875E878D859E856A8BC3
:103600000E949D196A898823E1F16623D1F12091F6
:10361000C801822F82958F7090E0029774F080919C
:10362000C3019091C40198878F831986DB86CA866F
:103630002C87CE0107960E943A1986E0F801A3EC88
:10364000B1E001900D928A95E1F70E94F0190E9475
:10365000E219FF24F394E5C04D875E878D859E8532
:103660000E94ED1E292F22952F7030E02230310567
:103670000CF0CBC09F7009F0C5C0805E883008F4A4
:10368000D0C0C8010E943A19E4CFC816D90608F480
:1036900053C0F601E81BF90BCF01883C910508F4F3
:1036A00050C0F12C7C2DD98AC88A89890E94A21920
:1036B000E3ECF1E086E0DF011D928A95E9F70E94D4
:1036C000E219AFC0751314C0341312C0611110C0D9
:1036D0008091C801F8018583C8010E943A1986E0EB
:1036E000E3ECF1E0DF011D928A95E9F7FE2C99C029
:1036F0004D875E878D859E856A8B0E949D196A899C
:10370000882309F4BECF662309F4BBCF2091C801FA
:10371000822F82958F7090E002970CF48ECF80916B
:10372000C3019091C4019A8389831B82DD82CC827C
:103730002E83CE0101967FCF809590958C0D9D1D97
:10374000ACCFF62E662309F49CCF75132EC034132C
:103750002CC02091C80120FD1FC0822F82958F7040
:10376000D9F0D80115962C9315978F3049F08F5FBB
:10377000982F9295907F822F8F70892B15968C931E
:10378000C8010E943A1986E0F801A3ECB1E001906B
:103790000D928A95E1F793CF86E0F801A3ECB1E0B2
:1037A00001900D928A95E1F73CC04D875E878D852B
:1037B0009E850E949D19811140CF8091C801816032
:1037C0008093C801C8010E943A192BC0662309F4EE
:1037D00058CF4D875E878D859E850E949D19F82E56
:1037E000882309F44ECF86E0F801A3ECB1E0019004
:1037F0000D928A95E1F783EC91E00E9477150E9483
:10380000F0195DCF811139CF0CC0243031050CF097
:1038100038CF9F7009F431CFF8019581907F09F07E
:103820002CCF8F2D62960FB6F894DEBF0FBECDBFA2
:10383000DF91CF911F910F91FF90EF90DF90CF908C
:1038400008951F93CF93DF93CDB7DEB72C970FB6B4
:10385000F894DEBF0FBECDBF4F83588769877A8744
:103860008B879C87CE0107960E944B1A882369F0AC
:103870008F8198852A853B85232BF1F19F3F09F0A5
:1038800063C08F3F09F060C037C086E0FE01379605
:10389000DE01119601900D928A95E1F76F8178858E
:1038A000EA85FB85309741F17F3F11F46F3F21F1AD
:1038B0002091920130E0C9010196877099274091CB
:1038C000910150E08417950709F447C069837A8312
:1038D000FD83EC8396E0929FD001939FB00D11245D
:1038E000AD56BE4FFE01319601900D929A95E1F7CB
:1038F000809392010E94C11916E0809191019091EC
:1039000092018917C1F1189FC00111248D569E4F55
:103910000E944B1A882379F1E09191011E9FF001DA
:103920001124ED56FE4F4081518162817381848163
:1039300095810E94B1198091910190E00196877064
:10394000992780939101D9CF4F81588569857A85D0
:103950008B859C850E94B119CFCF0E947719109258
:10396000920110929101E3ECF1E086E0DF011D92FB
:103970008A95E9F7C1CF2C960FB6F894DEBF0FBE3B
:10398000CDBFDF91CF911F910895EF92FF920F93DA
:103990001F93CF93DF938C01892B09F46CC0F12C1A
:1039A000EE24E394E8012196F8018491843740F4F1
:1039B000843008F051C0813081F0823019F15BC051
:1039C000853709F444C0A8F19CE7980F903708F0B8
:1039D00052C08F770E94941641C00E5F1F4FFE01A8
:1039E000C49180E28C0F883048F4C7708E2D01C0DE
:1039F000880FCA95EAF70E944F1F14C08C2F0E94AF
:103A00007D152DC00E5F1F4FFE01C49180E28C0F0B
:103A1000883058F4C7708E2D01C0880FCA95EAF718
:103A20000E94551F0E94781F1AC08C2F0E94941666
:103A300016C00E5F1F4FFE01C491CC2381F08FE9A9
:103A40009FE00197F1F700C00000C150F6CF0E5F74
:103A50001F4FFE01F49003C00E947D158E018F2D33
:103A6000882309F49FCFEFE9FFE03197F1F700C019
:103A700000008150F5CFDF91CF911F910F91FF9002
:103A8000EF90089508950C94421D0E94431D609389
:103A9000FF017093000280930102909302020C9444
:103AA000611908950C94451D0F931F930091FF0118
:103AB000109100022091010230910202602B712BC3
:103AC000822B932B1F910F910C94451D0F931F93E5
:103AD0000091FF0110910002209101023091020239
:103AE00060237123822393231F910F910C94451D12
:103AF0000F931F930091FF0110910002209101028A
:103B00003091020260277127822793271F910F911E
:103B10000C94451D08950C948A1D0E948B1D609382
:103B2000FB017093FC018093FD019093FE010C94C6
:103B3000611960E070E0CB010C948D1D0F931F9311
:103B400041E050E060E070E08A019B0104C0000F9A
:103B5000111F221F331F8A95D2F7C901B8011F9187
:103B60000F910C948D1D0F931F9341E050E060E086
:103B700070E004C0440F551F661F771F8A95D2F767
:103B80008091FB019091FC01A091FD01B091FE019B
:103B90008A019B01082B192B2A2B3B2BC901B80149
:103BA0001F910F910C948D1D0F931F9341E050E0D6
:103BB00060E070E004C0440F551F661F771F8A95B0
:103BC000D2F740955095609570958091FB0190914A
:103BD000FC01A091FD01B091FE018A019B01082327
:103BE00019232A233B23C901B8011F910F910C947B
:103BF0008D1D0F931F9341E050E060E070E004C022
:103C0000440F551F661F771F8A95D2F78091FB01DD
:103C10009091FC01A091FD01B091FE018A019B01F0
:103C2000082719272A273B27C901B8011F910F919F
:103C30000C948D1D0F931F930091FB011091FC01BB
:103C40002091FD013091FE01602B712B822B932B73
:103C50001F910F910C948D1D0F931F930091FB01E9
:103C60001091FC012091FD013091FE016023712330
:103C7000822393231F910F910C948D1D0F931F93FB
:103C80000091FB011091FC012091FD013091FE019A
:103C900060277127822793271F910F910C948D1D08
:103CA00008952FE0929F800D1124A82FA695A69528
:103CB000A695877051E001C0550F8A95EAF785E017
:103CC000A89FD001112420E030E070E0F901EA0F54
:103CD000FB1FE753FE4F4081CB01022E02C0969599
:103CE00087950A94E2F78170992781958427852327
:103CF000842780832F5F3F4F2530310539F70895A2
:103D00002FE0929F800D1124682F66956695669529
:103D1000982F977085E0689FB001112440E050E033
:103D200080E0FA01E60FF71FE753FE4F208130E0F5
:103D3000092E02C0369527950A94E2F721703327A1
:103D4000042E01C0220F0A94EAF7822B4F5F5F4FC7
:103D50004530510531F70895BF92CF92DF92EF922F
:103D6000FF920F931F93CF93DF938C01C090FF01BD
:103D7000D0900002E0900102F09002028091FB01DD
:103D80009091FC01A091FD01B091FE01C82AD92AB1
:103D9000EA2AFB2ACFE1D0E0D701C6010C2E04C0ED
:103DA000B695A795979587950A94D2F780FF07C097
:103DB000BC2EB8018C2F0E94D009019719F42197CD
:103DC00058F7B12C8B2DDF91CF911F910F91FF9060
:103DD000EF90DF90CF90BF900895CF93DF93EC01E9
:103DE0000E94AC1EBE010E94D009DF91CF910895C0
:103DF0001F93CF93DF93EB0190919001992321F0D2
:103E0000CB010E94ED1E13C0882349F0CB010E9414
:103E1000AC1E182F682FCE010E94511E04C0CB018A
:103E20000E94801E182FBE01812F0E94D009DF91B1
:103E3000CF911F9108958091030285958595859571
:103E400008958091030287700895909103029770FE
:103E500081E009F480E0089580912702089590910F
:103E60002702892B8093270208958095909127023D
:103E70008923809327020895109227020895909134
:103E80002602892B80932602089580959091260220
:103E90008923809326020895109226020895909116
:103EA0002502892B80932502089580959091250203
:103EB0008923809325020895109225020895809108
:103EC0000402089508950C94621F909104029817BB
:103ED00021F0809304020C94631F089580910402E2
:103EE000882329F01092040280E00C94631F089547
:103EF000E0911001F0911101809127028083E091FF
:103F00001001F0911101908180912602892B80830C
:103F1000E0911001F0911101908180912502892B8F
:103F2000808380910402882381F0E0911001F09158
:103F300011019081892B8083809110019091110152
:103F40000E94582081110E946E1F80911001909153
:103F500011010C94271408950C94AB1F98E0899FCD
:103F600090011124262B209303020E94B31D8091FF
:103F700003028595859585950C94AC1F10920302DC
:103F800080E00C94AC1F20910302809582238093E3
:103F90000302982F977079F430E0482F082E000C18
:103FA000550B2417350739F08595859585950E9421
:103FB000D41D0C94BE1F089580E090E00E946A29F1
:103FC00021E08D3E9E4F09F020E0822F089582E08F
:103FD00090E00C945C2983E090E00C945C2984E0F0
:103FE00090E00C945C29682F84E090E00C94702998
:103FF000AB01BC018FE090E00C948229AB01BC01C5
:1040000083E190E00C94822960E070E0CB010C9495
:10401000FE1F60E070E0CB010E94F81F0C940420AA
:104020006DEE7EEF80E090E00E948E2960E082E0FD
:1040300090E00E94702960E083E090E00E94702987
:104040001092FF01109200021092010210920202DF
:1040500060E084E090E00E94702960E085E090E0FC
:104060000E94702960E086E090E00E9470296FEF66
:1040700087E090E00E94702940E050E0BA0188E0BB
:1040800090E00E94822960E08DE090E00E9470291B
:1040900040E050E0BA0188E190E00E94822960E0AF
:1040A00087E190E00E9470290C9409200C94102064
:1040B000FC01329680911C01882331F080918802A6
:1040C00087FF02C09EE101C096E080E0915028F099
:1040D00021912223D9F38F5FF9CF08959C01FC0130
:1040E00032969FEF80E04191461789F09F3F19F487
:1040F000411101C0982F8F5F8630A9F79F3F39F09B
:10410000F901E90FF11D97FDFA956283089508956D
:10411000FC01329608962081261301C01082319648
:10412000E817F907C1F70895262F269526952695B5
:104130002E3168F4FC01E20FF11D677021E030E0E0
:1041400001C0220F6A95EAF78281282B2283089505
:10415000262F2695269526952E3170F4FC01E20F28
:10416000F11D677021E030E001C0220F6A95EAF787
:104170002095828128232283089520911C012223E7
:1041800029F02091880227FD0C9494200C946E2035
:1041900020911C01222329F02091880227FD0C94F4
:1041A000A8200C94882020911C01FC013296222327
:1041B00031F08091880287FF02C08EE101C086E065
:1041C000DF011D928A95E9F7089508950C94E52082
:1041D0000E94E62080918E02843009F439C010924A
:1041E000290220E488E190E00FB6F894A895809326
:1041F00060000FBE2093600080E00E9498070E943C
:10420000961280912A0281110AC081E080932A02CD
:1042100080914F02817080932B020E94C4110E94F2
:10422000E62083B7817F846083BF83B7816083BFCB
:104230007894889583B78E7F83BF0FB6F894A8953E
:1042400080916000886180936000109260000FBED2
:10425000089508950895CF930E9429210E947C0C0F
:104260000E942A21C0E08C2F0E94270C892B29F460
:10427000CF5FC530C1F780E001C081E0CF910895E4
:1042800008950C9440210E9477190E941B140E94EB
:10429000980710922A0280912B0281110E948E129F
:1042A0000E94D6110C9441211F920F920FB60F92CB
:1042B00011248F939F93AF93BF9380912902811113
:1042C00013C08091840290918502A0918602B091E2
:1042D00087024196A11DB11D8093840290938502AF
:1042E000A0938602B0938702BF91AF919F918F9167
:1042F0000F900FBE0F901F90189582E084BD93E041
:1043000095BD9AEF97BD80936E0008952FB7F894EE
:104310008091840290918502A0918602B0918702DB
:104320002FBF0895CF92DF92EF92FF920F931F93CA
:104330002FB7F894409184025091850260918602D3
:10434000709187022FBF6A017B01EE24FF248C014C
:1043500020E030E0C016D106E206F30610F441502A
:1043600051099A01281B390BC9011F910F91FF9028
:10437000EF90DF90CF90089578941F920F920FB630
:104380000F9211248F939F93AF93BF9380918402D8
:1043900090918502A0918602B09187020196A11D9D
:1043A000B11D8093840290938502A0938602B093FE
:1043B0008702BF91AF919F918F910F900FBE0F9089
:1043C0001F90189581E08093E00080E28093D800F0
:1043D0001092C9008FE19EE40197F1F700C0000040
:1043E00087E090EBDC018093970290939802A09372
:1043F0009902B0939A029CE088E10FB6F894A895D0
:10440000809360000FBE90936000FFCF0E94DC1F7E
:10441000811102C00E9456200E94E71F809328024B
:104420000E94EF1F90E090938902809388020E947F
:10443000EB1F682F70E080E090E00C94521D80919B
:104440004C02089508950F931F93CF93DF9300D0EC
:104450001F92CDB7DEB78C010E946824823011F024
:10446000843021F584E089831B830A8382E0809372
:10447000E9008FEF9091E800815095FD06C095ED21
:104480009A95F1F700008111F5CF8091E80085FF42
:104490000DC040E050E063E070E0CE0101960E9464
:1044A00085248091E8008E778093E8000F900F902C
:1044B0000F90DF91CF911F910F910895CF93DF93CC
:1044C00000D01F92CDB7DEB720918E02243031F597
:1044D00023E02983805891099B838A8382E080931B
:1044E000E9008FEF9091E800815095FD06C095EDB1
:1044F0009A95F1F700008111F5CF8091E80085FFD2
:104500000DC040E050E063E070E0CE0101960E94F3
:1045100085248091E8008E778093E8000F900F90BB
:104520000F90DF91CF910895CF93DF93EC010E941C
:104530006824823011F08430D9F580911C018823E1
:1045400039F08091880287FF03C060E282E002C0F8
:1045500068E081E08093E9008FEF9091E80081505E
:1045600095FD06C095ED9A95F1F700008111F5CF04
:104570008091E80085FF1CC080911C01811105C05D
:1045800040E050E068E070E003C070E040E050E0E0
:10459000CE010E9485248091E8008E778093E80008
:1045A00080E2FE01ACE2B2E001900D928A95E1F763
:1045B000DF91CF91089580918D02811109C00E94F1
:1045C0001A260E9477268091E20084608093E200A0
:1045D000089510928D020895089508950C94432132
:1045E00042E061EC81E00E94942542E261EC82E0CD
:1045F0000C94942580919002833009F460C030F4CB
:10460000813071F0823009F499C008958A3009F43C
:1046100085C08B3009F46BC0893009F0A7C020C079
:1046200080918F02813A09F0A1C08091E800877FD4
:104630008093E8008091930290919402892B21F459
:1046400060E28CE292E003C060E080E090E070E025
:104650000E94D0248091E8008B778093E800089531
:1046600080918F02813209F081C0809193029091F4
:104670009402029708F07AC08091E800877F8093C7
:10468000E8008091E80082FD05C080918E028111D2
:10469000F8CF6CC02091F3008091F20090E0922B53
:1046A000029729F48091F1008B7F813021F4809171
:1046B000F10080934C028091E8008B7753C0809189
:1046C0008F02813A09F052C0809193029091940236
:1046D000892B09F04BC08091E800877F8093E80028
:1046E0008091E80080FFFCCF80911C0136C0809152
:1046F0008F028132D9F58091930290919402892B97
:10470000A9F58091E800877F8093E8000E94C92581
:104710008091910280931C010C94771980918F02F3
:10472000813221F58091E800877F8093E8000E9424
:10473000C9258091920280934D02089580918F0245
:10474000813AA1F48091E800877F8093E80080910E
:10475000E80080FFFCCF80914D028093F1008091B2
:10476000E8008E778093E8000C94C925089584B7FB
:10477000877F84BF0FB6F894A89580916000886108
:1047800080936000109260000FBE80E8809361000B
:10479000109261000E947B140E941A260E947726C4
:1047A0008091E20084608093E20078940E94062960
:1047B0000E94831482E191E00E94161480918E027F
:1047C000853069F40E94E82080918C028823B1F33F
:1047D0000E942B21882391F30E946F24EFCF0E9427
:1047E0008D140E949912EACF0C94F623292F3327B7
:1047F00023303105C9F064F42130310581F02230D5
:10480000310509F04CC08BE390E02BEE3CE04BC04F
:104810002132310521F12232310589F140C082E196
:1048200090E026E23DE03FC099278130910571F08C
:104830002CF4892BA1F5E7EEFCE00DC08230910548
:1048400041F0039761F5E1ECFCE005C0E7EDFCE029
:1048500002C0E7ECFCE0849190E09F0124C0611568
:10486000710541F061307105D1F489E090E026E1F5
:104870003DE019C089E090E02DEF3CE014C06115E7
:10488000710541F06130710551F481E790E028E352
:104890003DE009C080E490E029EA3DE004C080E00A
:1048A00090E020E030E0FA013183208308950895FC
:1048B000CF93C82F0E945724C0934E02CF910895E2
:1048C00080918E02843011F081E0089582E0089595
:1048D00080914E02811102C00C946024089580E101
:1048E00089BD82E189BD09B400FEFDCF8091D80069
:1048F0008F7D8093D8008091E00082608093E000FB
:104900008091E00081FDFCCF0895CF92DF92EF927D
:10491000FF920F931F93CF93DF93EC018B016A01FA
:104920000E94E825811133C0C114D10439F0F60189
:1049300080819181081B190BC80FD91FE12CF12C24
:104940000115110519F18091E80085FD16C08091CF
:10495000E8008E778093E800C114D10449F0F60195
:1049600080819181E80EF91EF182E08285E00FC01E
:104970000E94E825882321F30AC089918093F100E1
:1049800001501109FFEFEF1AFF0ADACF80E0DF9143
:10499000CF911F910F91FF90EF90DF90CF900895EE
:1049A00020919502309196022617370748F061153D
:1049B000710539F42091E8002E772093E80001C0BA
:1049C000B90140E061157105A9F120918E02222301
:1049D00009F443C0253009F442C02091E80023FDCA
:1049E00040C02091E80022FD32C02091E80020FF65
:1049F000E9CF4091F3002091F20030E0342BFC012C
:104A0000CF016115710559F02830310540F48191CD
:104A10008093F100615071092F5F3F4FF1CF41E06A
:104A20002830310509F040E02091E8002E772093EE
:104A3000E800C8CF4111C9CF0AC080918E028823F7
:104A400061F0853061F08091E80083FD0AC08091BB
:104A5000E80082FFF2CF80E0089582E0089583E0CD
:104A6000089581E0089520919502309196022617CD
:104A7000370748F06115710539F42091E8002E7769
:104A80002093E80001C0B901FC0120E06115710527
:104A900091F180918E02882309F440C0853009F499
:104AA0003FC08091E80083FD3DC08091E80082FD19
:104AB0002FC08091E80080FFE9CF2091F300809122
:104AC000F20090E0922B6115710559F08830910544
:104AD00040F424912093F1003196615071090196C0
:104AE000F2CF21E0089709F020E08091E8008E776E
:104AF0008093E800CBCF2111CCCF0AC080918E02E9
:104B0000882361F0853061F08091E80083FD0AC060
:104B10008091E80082FFF2CF80E0089582E008955E
:104B200083E0089581E00895982F973058F5909389
:104B3000E900981739F07091EC002091ED00509148
:104B4000F00003C0242F762F50E021FF19C03091D0
:104B5000EB003E7F3093EB003091ED003D7F3093D2
:104B6000ED003091EB0031603093EB007093EC007E
:104B70002093ED005093F0002091EE0027FF07C036
:104B80009F5FD3CF8F708093E90081E0089580E02C
:104B9000089580918F0287FF11C08091E80082FD07
:104BA00005C080918E028111F8CF11C08091E8007C
:104BB0008B770BC080918E02882349F08091E800AA
:104BC00080FFF8CF8091E8008E778093E800089509
:104BD0002091E4003091E50095E64091EC00842FAF
:104BE000817040FF22C08091E80080FD1CC0809150
:104BF0008E02882391F0853091F08091EB0085FD45
:104C000010C04091E4005091E5004217530729F38A
:104C10009A01915011F784E0089582E0089583E0AD
:104C2000089581E0089580E008954091E80042FFF2
:104C3000DECF08950E9488260E949026E0EEF0E0E4
:104C4000808181608083E8EDF0E080818F778083D0
:104C500019BCA7EDB0E08C918E7F8C9380818F7E04
:104C6000808310928D0208950F931F93CF93DF934B
:104C70000E9488260E949026C8EDD0E088818F7718
:104C8000888388818068888388818F7D888319BC28
:104C900010928E0210928A0210928C0210928B0255
:104CA00000EE10E0F80180818B7F80838881816035
:104CB000888342E060E080E00E949425E1EEF0E02D
:104CC00080818E7F8083E2EEF0E08081816080834E
:104CD000808188608083F80180818E7F80838881D5
:104CE00080618883DF91CF911F910F910895E8ED46
:104CF000F0E080818F7E8083E7EDF0E0808181604D
:104D0000808384E082BF81E080938D020C943426FE
:104D1000E8EDF0E080818E7F80831092E2000895BC
:104D20001092DA001092E10008951F920F920FB6D0
:104D30000F9211242F933F934F935F936F937F9321
:104D40008F939F93AF93BF93EF93FF938091E10075
:104D500082FF0BC08091E20082FF07C08091E100DA
:104D60008B7F8093E1000E9405298091DA0080FF0B
:104D70001FC08091D80080FF1BC08091DA008E7F19
:104D80008093DA008091D90080FF0DC080E189BD59
:104D900082E189BD09B400FEFDCF81E080938E02DF
:104DA0000E94DB2205C019BC10928E020E94E922EB
:104DB0008091E10080FF19C08091E20080FF15C062
:104DC0008091E2008E7F8093E2008091E20080611A
:104DD0008093E2008091D80080628093D80019BC53
:104DE00085E080938E020E94ED228091E10084FF95
:104DF00030C08091E20084FF2CC080E189BD82E157
:104E000089BD09B400FEFDCF8091D8008F7D8093CD
:104E1000D8008091E1008F7E8093E1008091E200D4
:104E20008F7E8093E2008091E20081608093E200B7
:104E300080918A02882311F084E007C08091E3000A
:104E400087FD02C081E001C083E080938E020E9452
:104E5000EE228091E10083FF29C08091E20083FF70
:104E600025C08091E100877F8093E10082E08093FC
:104E70008E0210928A028091E1008E7F8093E10081
:104E80008091E2008E7F8093E2008091E200806159
:104E90008093E20042E060E080E00E9494258091EF
:104EA000F00088608093F0000E94EC22FF91EF9167
:104EB000BF91AF919F918F917F916F915F914F9132
:104EC0003F912F910F900FBE0F901F9018951F923A
:104ED0000F920FB60F9211242F933F934F935F932E
:104EE0006F937F938F939F93AF93BF93CF93DF93F2
:104EF000EF93FF93C091E900CF708091EC00D82F21
:104F0000D17080FDD0E81092E9008091F000877F99
:104F10008093F00078940E94AB271092E900809172
:104F2000F00088608093F000CD2BCF70C093E90033
:104F3000FF91EF91DF91CF91BF91AF919F918F91B1
:104F40007F916F915F914F913F912F910F900FBE85
:104F50000F901F9018951F93CF93DF93CDB7DEB7B7
:104F6000AA970FB6F894DEBF0FBECDBFEFE8F2E010
:104F700088E08E0F9091F10091938E13FBCF0E94E9
:104F8000FA228091E80083FF28C180918F029091DE
:104F90009002492F50E04A30510508F01EC1FA0135
:104FA000E556FF4F0C944929803821F0823809F0EA
:104FB00014C108C080918B0290918C02992389F0D2
:104FC00082600FC0809193028F70873008F005C116
:104FD0008093E9008091EB0085FB882780F910928F
:104FE000E9009091E800977F9093E8008093F100AA
:104FF0001092F100D0C0282F2D7F09F0EEC0882339
:1050000019F0823061F0E9C080919102813009F09D
:10501000E4C0933009F080E080938C022EC0809130
:10502000910281112AC0809193028F702FEF280F77
:10503000263008F0D2C08093E9002091EB0020FFD9
:105040001CC0933021F48091EB00806214C09091D9
:10505000EB0090619093EB0021E030E0A90102C0E9
:10506000440F551F8A95E2F74093EA001092EA0038
:105070008091EB0088608093EB001092E9008091B2
:10508000E800877F8093E8000E94C925A6C08111AF
:10509000A4C0109191021F778091E3008078812B4A
:1050A0008093E3008091E800877F8093E8000E946E
:1050B000C9258091E80080FFFCCF8091E3008068E3
:1050C0008093E300111102C082E001C083E080936D
:1050D0008E0283C08058823008F07FC08091910298
:1050E000909192028C3D53E0950779F583E08A8395
:1050F0008AE289834FB7F894DE01139620E03EE000
:1051000051E2E32FF0E050935700E49120FF03C0F9
:10511000E295EF703F5FEF708E2F90E0EA3010F075
:10512000C79601C0C0968D939D932F5F243149F798
:105130004FBF8091E800877F8093E8006AE270E0CB
:10514000CE0101960E94D02415C060919302709107
:105150009402AE014F5F5F4F0E94F423BC01892B84
:10516000E1F19091E800977F9093E80089819A811E
:105170000E9433258091E8008B778093E8002DC052
:10518000803859F58091E800877F8093E80080910E
:105190008A028093F1008091E8008E7773CF8111AD
:1051A0001CC0909191029230C0F48091E800877FFA
:1051B0008093E80090938A020E94C92580918A0218
:1051C000811106C08091E30087FD02C081E001C02B
:1051D00084E080938E020E94F0228091E80083FF99
:1051E0000AC08091E800877F8093E8008091EB00FF
:1051F00080628093EB00AA960FB6F894DEBF0FBED4
:10520000CDBFDF91CF911F9108950895CF938091E5
:105210008E028823A1F0C091E900CF709091EC003C
:10522000892F817090FD80E8C82B1092E900809151
:10523000E80083FD0E94AB27CF70C093E900CF91B7
:105240000895AA1BBB1B51E107C0AA1FBB1FA617CD
:10525000B70710F0A61BB70B881F991F5A95A9F71F
:1052600080959095BC01CD01089597FB072E16F40B
:10527000009407D077FD09D00E94212907FC05D0B2
:105280003EF4909581959F4F0895709561957F4F5D
:105290000895EE0FFF1F0590F491E02D0994FC0195
:1052A0004150504030F001900616D1F73197CF01B0
:1052B0000895882799270895F999FECF92BD81BD59
:1052C000F89A992780B50895A6E1B0E044E050E04F
:1052D0000C949629A8E1B0E042E050E00C949629A5
:1052E000262FF999FECF92BD81BDF89A019700B49F
:1052F000021639F01FBA20BD0FB6F894FA9AF99A3F
:105300000FBE08950396272F0E9471290E947029CD
:10531000252F0E947129242F0C9471290196272F83
:105320000E9471290C947029DC01CB01FC01F999D0
:10533000FECF06C0F2BDE1BDF89A319600B40D92E1
:0C53400041505040B8F70895F894FFCF9A
:10534C00010210101001191A1B1C1D1E1F202122F6
:10535C0005021F22942222225E22232201F0F1C692
:10536C006766369431373534979633F4909192932F
:10537C00950001020202020606060909090909093B
:10538C000F0F0F0F0F0F15151518191919191919CA
:06539C0019191919232460
:00000001FF
